:100000000C9443020C94521D0C947B020C947B02C2
:100010000C947B020C947B020C947B020C947B026C
:100020000C947B020C947B020C947E220C94502343
:100030000C94BF1B0C947B020C947B020C947B02EF
:100040000C947B020C947B020C947B020C947B023C
:100050000C947B020C94641C0C947B020C947B0229
:100060000C947B020C947B020C947B020C947B021C
:100070000C947B020C947B020C947B020C947B020C
:100080000C947B020C947B020C947B020C947B02FC
:100090000C947B020C947B020C947B020C947B02EC
:1000A0000C947B020C947B020C947B02F704F70403
:1000B000230523058405A2058E068E06A7051D06C9
:1000C0002E062E069D160F17A5166F167316A91667
:1000D0007616AC16B716811605178516BB16891647
:1000E000BF16E9168D16C316F3169316C916D31646
:1000F0007A16B0167D16B3169816CE16DF16FF16B2
:1001000001176B16A1161817391A3F1A2D1A331A30
:10011000451A4B1A511AB823DF23D724DF23D724DB
:100120002B244E24D724A524B42429001E001F000C
:100130002000210022002300000000002B001400FA
:100140001A000800150017000000000000002152EE
:1001500004001600070009000A000000000000006B
:10016000E1001D001B000600190005000000000052
:100170000000E000E300E20022522C00000000003A
:1001800000000000230024002500260027002D0089
:100190002E002A004A001C0018000C001200130058
:1001A0002F00300031004D000B000D000E000F003D
:1001B00033003400280000004B000500110010003F
:1001C000360037003800E50052004E00E6002C00F3
:1001D0000000215249004C00500051004F003500F2
:1001E0003A003B003C003D003E003F0000000000A4
:1001F00039004A0052004D004B0001000000000091
:1002000000000100500051004F004E0001000000AE
:1002100000000000010049004C0046000100010000
:1002200000000000000001000100010001000100C9
:1002300000000000000000003F00400041004200BC
:100240004300440045000100A80001003500010002
:1002500001004B00010001000100AE005000510000
:1002600052004F000100010001000000A9004E00F3
:100270004E000100010049004C000100A900AA0045
:1002800039000100000001006500E400AC00AA0094
:10029000AB00010059005A005B005C005D005E008D
:1002A0000000000082004A0052004D004B00010097
:1002B0000000000000000100500051004F004E00FF
:1002C0000100000000000000010049004C00460051
:1002D0000100010000000000000001000100010019
:1002E0000100010000000000000000005E005F004F
:1002F000600061006200560067000100A5005F0019
:100300006000610001000100010001000100A60081
:100310005C005D005E00010001000100580000006B
:10032000AC00620059005A005B0063004C00010001
:100330000100AB00530001000000010001000100BA
:100340000100010001001E03530070006C006900F1
:1003500074002D006B006500790062006F00610081
:100360007200640000000E034D00790048006F0029
:100370006D00650000000403090409023B0002014E
:1003800000A0FA0904000001030101000921110184
:10039000000122440007058103080001090401004F
:1003A0000103000000092111010001227B00070563
:1003B00082032000011201000200000008EDFE454A
:1003C0004401000102000105010902A101850209A1
:1003D00001A10005091901290815002501950875D5
:1003E0000181020501093009311581257F950275CA
:1003F00008810609381581257F9501750881060554
:100400000C0A38021581257F950175088106C0C048
:1004100005010980A101850319012AB700150126EC
:10042000B700950175108100C0050C0901A1018577
:100430000419012AA002150126A002950175108158
:1004400000C005010906A101050719E029E715000B
:10045000250195087501810295017508810105073F
:10046000190029FF150026FF009506750881000573
:1004700008190129051500250195057501910295B9
:100480000175039101C011241FBECFEFDAE0DEBF7A
:10049000CDBF04B603FE18C08091F8029091F90216
:1004A000A091FA02B091FB028730904BA740B04B6D
:1004B00059F41092F8021092F9021092FA02109276
:1004C000FB02E0E0F8E3099511E0A0E0B1E0ECEC1C
:1004D000FBE402C005900D92A03BB107D9F722E0E2
:1004E000A0EBB1E001C01D92A83FB207E1F70E9466
:1004F0005C140C94E4250C9400000E94AF10089545
:1005000081E008958330B0F46A30A0F4493090F46B
:100510009AE5899FF001112489E0689FE00DF11DA3
:100520001124E40FF11DEE0FFF1FE65DFE4F8591D4
:100530009491089581E090E008950E9482020895C8
:1005400081E0089581E008950E94A20208950E942A
:10055000A40208950E948002089508950E94AD02A9
:100560000895A6E0B0E0E7EBF2E00C944025498363
:100570005A839E833091B70189819A81311115C0C8
:100580003E81332359F0222349F00E944C08182F52
:10059000682F89819A810E94280803C00E943A0826
:1005A000182F69817A81812F04C00E944C086981CB
:1005B0007A810E94570F2696E3E00C945C25FC019B
:1005C000262F4081518162817381848195810E94AF
:1005D000B1020895CF93DF93EC0161E00E94DF0246
:1005E000BE010E94A702DF91CF910895CF93DF93C0
:1005F000EC0160E00E94DF02BE010E94AE02DF91CA
:10060000CF91089581E008950E9402030895CF9349
:10061000C82F0E94FF068C2F0E9404032FEF84E353
:100620009CE0215080409040E1F700C00000CF9155
:10063000089581E00E9407030E948A1C089580E0CB
:100640000E9407030E94AE1C08950F931F93CF933F
:10065000DF938C0161E00E94DF02EC01B8010E948F
:10066000AA02882309F442C0B801CE010E94211ACF
:100670008823E1F1B801CE010E9447168823B1F129
:10068000B801CE010E941D16882381F1F8018581F1
:10069000882341F1C3308CE7D807D1F040F4C1156D
:1006A000FCE7DF0791F0C130DC47A1F01BC0CB3580
:1006B000ECE7DE07A9F0CC35FCE7DF0771F0CA35BF
:1006C000DC4781F40E94800C0DC00E9419030EC00B
:1006D0000E94880C0E941F0309C00E94760C02C071
:1006E0000E94840CC8010E94A00201C080E0DF913A
:1006F000CF911F910F9108950E94971B0E949C0318
:1007000008950E94A0030E94A01B089581E008950F
:100710000895CF93DF93D82F0E948603C82F882394
:1007200019F08D2F0E9488038C2FDF91CF910895AF
:1007300008950E948903089580E00E949903089516
:100740000E94691A0E9499030895CF930E94691A22
:10075000C82F8091B201C81779F0C093B2010E94EE
:100760002D1C6093B3017093B4018093B5019093F5
:10077000B6018C2F0E949903CF910895ADE0B0E0AF
:10078000E4ECF3E00C944125488759876A877B871E
:100790008C879D8791110E94B20BCE01019627E0B4
:1007A000FC0111922A95E9F726E0FE013896DC015A
:1007B00001900D922A95E1F72D8121110AC029811E
:1007C0003A814B815C816D817E818F810E94FC0A20
:1007D00004C00E94EA028111F2CF2D96E2E00C944F
:1007E0005D25FC012481213021F4808191810E94CA
:1007F0007E080895662319F00E94B71702C00E9470
:1008000012180E9489180895CF93882309F449C0CB
:10081000C82F8CEF8C0F813A98F48C2F0E94BC1556
:1008200081113FC08C2F0E94EF1A882329F08C2F52
:100830000E94321B0E94140C8C2F0E942A1B0CC099
:1008400080E28C0F883058F4C77081E001C0880FB7
:10085000CA95EAF70E94950B0E94140C22C0EBE5A2
:10086000EC0FE33040F4F0E0EC59FE4F808190E073
:100870000E94961A16C0E8E5EC0FEB3150F4F0E058
:10088000EE0FFF1FE25DFE4F808191810E94BB1A37
:1008900008C083E38C0F833120F461E08C2F0E9429
:1008A000FA03CF910895882381F19CEF980F913A34
:1008B00018F40E94321B0DC090E2980F983060F43B
:1008C000877091E001C0990F8A95EAF7892F0E94FD
:1008D0009B0B0E94140C08959BE5980F933028F40D
:1008E00080E090E00E94961A089598E5980F9B3159
:1008F00028F480E090E00E94BB1A089593E3980FDB
:10090000933118F460E00E94FA0308951F93CF9387
:10091000DF93182FEB010E940404209741F08FE928
:100920009FE00197F1F700C000002197F6CF812FDB
:100930000E945304DF91CF911F910895893319F0DC
:1009400060E070E002C060E570E00E9486040895F7
:10095000882321F00E94950B0E94140C089588238F
:1009600021F00E949B0B0E94140C0895A0E0B0E0BF
:10097000ECEBF4E00C943B257C01162FC72FFC0117
:10098000D581068102950F700E948B0B8823F9F0A8
:10099000DD23E9F08C2F807F803461F080E2810FCD
:1009A0008830A8F08C2F807E803221F4123078F0CD
:1009B000002369F08091B80282FF09C082E00E94A2
:1009C0004A0C0E948B0B91E0D82ED92601C0D12C65
:1009D000CC2EC2948FE0C8228C2D90E08C309105F3
:1009E00008F09CC1FC01EA5AFF4F0C942B258C2F78
:1009F000807FCF70882311F0C295C07FDD2399F0EE
:100A0000CC2309F477C180E2810F883010F01111F6
:100A100004C08C2F0E94950B03C08C2F0E94A50B45
:100A20000E94140C67C1812F0E945304CC2309F447
:100A300075C180E2810F883038F1112329F18C2FA4
:100A40000E94AB0B24C08C2F807FCF70803211F0BE
:100A5000C295C07F112319F0113099F13CC08091EB
:100A6000B80282FD17C0DD2349F0CC2329F08C2F7A
:100A70000E94950B0E94140C80E03DC180E00E9412
:100A80005304CC2309F44AC18C2F0E949B0B0E9473
:100A9000140C44C1DD2349F0002309F1013009F0B1
:100AA0003DC18C2F0E94BC0B39C1011137C18C2F65
:100AB0000E94AF048C2F0E94C80B8C2F0E941D0C2B
:100AC0002DC1DD2321F0063008F028C108C0053013
:100AD00008F024C115C0DD2331F001110BC18C2FAA
:100AE0000E94A8041BC1002359F0193309F013C157
:100AF000FFEF27EE83E0F15020408040E1F709C18D
:100B00008C2F0E94AF040AC18C2F86958695837026
:100B100019F0813061F002C1DD2321F0812F9C2F7B
:100B2000937002C080E090E00E94961AFFC0DD231F
:100B300021F0812F9C2F937002C080E090E00E94F2
:100B4000BB1AF4C06D2F812F0E94FA03EFC08C2FC7
:100B50008370B1F5D111E6C0412F4295469547709B
:100B6000440F440F812F8F7090E09C01042E02C02F
:100B7000220F331F0A94E2F714FF0AC08FE090E0BF
:100B800002C0880F991F4A95E2F78095909502C0A0
:100B900080E090E0C695C695C370822B932BC2303F
:100BA00049F058F4C13019F00E945B07BBC00E94A5
:100BB0005207B8C00E946407B5C00E944F07B2C078
:100BC000DD2319F08C2F817001C08695882309F4EC
:100BD000A9C0412F429546954770440F440F812F7D
:100BE0008F7090E09C01042E02C0220F331F0A94E4
:100BF000E2F714FF0AC08FE090E002C0880F991F4F
:100C00004A95E2F78095909502C080E090E0C69505
:100C1000C695C370822B932BC23049F058F4C13073
:100C200019F00E94C3077EC00E94BA077BC00E94D1
:100C3000CC0778C00E94700775C0CF70DD2339F0F3
:100C40008C2F0E948807812F0E94A8046BC0812FDF
:100C50000E94AF048C2F0E94980764C0123F21F1BC
:100C600028F4103F41F0113FC1F040C0133F19F18B
:100C7000143F79F03BC0DD2341F0053008F04EC051
:100C80008C2F8F710E94AA0749C0063008F046C019
:100C9000F7CF8091B80282FD18C0DD2339F08C2F88
:100CA0008F710E9488073AC0DD23C9F38C2F8F71A2
:100CB0000E94980733C0DD2329F08C2F8F710E948A
:100CC0007C072CC00E94770729C0DD2331F063E048
:100CD0008C2F8F710E942C0C21C081E00E944A0C45
:100CE0000230E0F082E00E944A0C18C0DD2331F0AF
:100CF0000023A9F2812F0E94040410C00023B1F246
:100D0000193349F49FEFE7EEF3E09150E040F040F3
:100D1000E1F700C00000812F0E94530488EF8C0D82
:100D2000843020F40E94691A0E949903DD2089F022
:100D30000E94870B80FD0DC0F70115820E94810B78
:100D40000E948807C7010E94C6060E94810B0E946C
:100D50009807CDB7DEB7E8E00C9457250F931F93A3
:100D6000CF93DF93EC01688179818D810E9489089E
:100D70008C010E94D5070E944007B801CE010E9455
:100D8000B604DF91CF911F910F910895CF93DF9318
:100D9000FC0124812223D1F0EC010E942503811162
:100DA0000FC00E948B0B882389F08D81882371F0FE
:100DB0008091B80282FF0AC082E00E944A0C06C0FD
:100DC000CE010E94AE06CE010E94F602DF91CF91C5
:100DD000089580E090E00E94961A80E090E00E94E2
:100DE000BB1A0E94B20B0E94140C0E94A8180E9409
:100DF000891808950E943A1B0E94E90608950E94EE
:100E0000A20B0E94FA06089592959F70963079F091
:100E100010F4925001C09A50923068F4803F69F00B
:100E200018F4883E40F409C0843F29F406C0883E87
:100E300020F0813F11F080E0089581E00895FC01E9
:100E40002481222339F0808191810E947E080E94B2
:100E50000407089580E00895A6E0B0E0E2E3F7E03B
:100E60000C9441252696E2E00C945D25A7E0B0E0C5
:100E7000ECE3F7E00C9441252796E2E00C945D2525
:100E8000089508950E94410708950E944207089519
:100E90000E9445079093EB018093EA0108950E9418
:100EA000480708952091EA013091EB01822B932BA2
:100EB0000E94480708952091EA013091EB018223B6
:100EC00093230E94480708952091EA013091EB0195
:100ED000822793270E94480708950E94410708959A
:100EE0000E946D079093E9018093E801089580E0E6
:100EF00090E00E947007089521E030E0A90102C04F
:100F0000440F551F8A95E2F7CA010E9470070895A1
:100F100021E030E002C0220F331F8A95E2F7809172
:100F2000E8019091E901822B932B0E9470070895AC
:100F300021E030E002C0220F331F8A95E2F72095AE
:100F400030958091E8019091E901822393230E94DA
:100F50007007089521E030E002C0220F331F8A9508
:100F6000E2F78091E8019091E901822793270E949E
:100F7000700708952091E8013091E901822B932BAD
:100F80000E94700708952091E8013091E9018223C1
:100F900093230E94700708952091E8013091E901A0
:100FA000822793270E94700708950895962F9770BF
:100FB000A1E001C0AA0F9A95EAF793E076956795AC
:100FC0009A95E1F7660F771F660F771FFA01E60F14
:100FD000F71F40E050E0682F70E090819B01042EE5
:100FE00002C0369527950A94E2F7217021952927AA
:100FF0002A23292721934F5F5F4F4430510569F71A
:101000000895FB01782F777023E0969587952A95B0
:10101000E1F7880F991F880F991FE80FF91F40E02B
:1010200050E080E0219130E0072E02C036952795F0
:101030000A94E2F721703327042E01C0220F0A948C
:10104000EAF7822B4F5F5F4F4430510559F70895FF
:10105000282F9A3070F4893060F4862F622F70E068
:1010600029E0929F600D711D112448EB51E00E9410
:10107000D60708959A3070F4893060F4292F90E0F3
:1010800068EB71E039E0239F800D911D11240E94CF
:101090000108089580E00895A0E0B0E0E2E5F8E0FE
:1010A0000C943A257C010091E8011091E9018091AE
:1010B000EA019091EB01082B192BCFE0D0E0CC2472
:1010C000C394D12CC6010C2E02C0880F991F0A941C
:1010D000E2F780239123892B21F4219798F7B12CF3
:1010E00007C0BC2EB7018C2F0E94630F0197A9F394
:1010F0008B2DCDB7DEB7E9E00C945625CF93DF9367
:10110000EC010E944C08BE010E94630FDF91CF9159
:1011100008951F93CF93DF93EB019091B70199232B
:1011200021F0CB010E947E0813C0882349F0CB0137
:101130000E944C08182F682FCE010E94280804C076
:10114000CB010E943A08182FBE01812F0E94630F25
:10115000DF91CF911F9108951F93CF93DF93C0919B
:10116000EC0117E08091ED01C817A1F0D0E01C9FC1
:10117000F0011D9FF00D1124E251FE4F20813181BD
:10118000428153816481758186810E943607219650
:10119000C770E8CFDF91CF911F910895209126026B
:1011A00030912702409128025091290260912A0231
:1011B00070912B0280912C020E9436070895CF93E4
:1011C000DF9380912C0282958F7009F04EC0809140
:1011D0002B02882309F449C08091EC014091ED0174
:1011E0005091270260912602C0912802D0912902D5
:1011F00077E08417D1F190E0789FF001799FF00DAE
:101200001124DF01A251BE4F14962C911497222372
:1012100049F111962C911197251324C02C91261376
:1012200021C015962C91159721111CC012962D9155
:101230003C9113972C1B3D0B283C310598F4809171
:101240002C028F70806180932C02EC50FE4F8081C5
:101250008F708061808386E292E00E94C6060E94C1
:10126000AC0803C001968770C4CFDF91CF91089579
:101270002091EC019091ED0157E02917A9F030E0A1
:10128000529FF001539FF00D1124E251FE4F7181E6
:10129000761306C07081781303C07581741306C07D
:1012A0002F5F3F4F2770E9CF80E0089581E00895D8
:1012B000A4E1B0E0EEE5F9E00C9437258C0186E07E
:1012C000F801DE011F9601900D928A95E1F7F80171
:1012D0008481E58096E2A92E92E0B92E90912A02AF
:1012E000911118C0882309F480C1EE20D9F1C801FA
:1012F0000E941F07F82E8823A9F187E0F801D50185
:1013000001900D928A95E1F7C5010E94F1030E94B8
:10131000DF0898C0F801C080D18082809380F0906F
:101320002B022091280230912902A401421B530B69
:10133000FF2009F406C1483C510508F0AFC08823DE
:1013400009F455C180912C02282F207F909127020B
:10135000222361F09D1509F462C0C8010E941F0795
:10136000811173C0C8010E94C6063FC19D1115C0FE
:10137000909126029C1111C0E1100FC08F70806106
:1013800080932C020E94CE0886E292E00E94C6065C
:1013900080912C02F801868326C1E1103AC040E01A
:1013A0006D2D8C2D0E94380940E06D2D8C2D0E94F2
:1013B0003809E82E811117C1CF86D88A8F85988980
:1013C0000E947E08292F22952F70243020F49F70D0
:1013D000223028F009C02A50223080F014C099230E
:1013E00049F0811107C013C0992321F0F8019681BB
:1013F000907F69F0805E883030F409C0803F38F01B
:10140000815F833020F0C8010E94C606EF2CFE2CBD
:10141000EEC080912C02816080932C02E4C09091F8
:1014200026029C119ACFE11098CFF8018683C8015B
:101430000E94C60687E0F801A6E2B2E001900D9294
:101440008A95E1F70E94CE08D2C0EE2009F48ACF37
:1014500020912C02822F82958F7090E002978CF061
:101460008091260290912702998788879B868A8699
:1014700080912A028C871D862E87CE0108960E94B5
:10148000C60687E0F801A6E2B2E001900D928A95C7
:10149000E1F70E94DF080E94CE08A7C090912C02BD
:1014A000292F207FA1F4682D9A8A898AA6017A893A
:1014B0009E2D0E942C0786E292E00E94C60687E0DD
:1014C000F50111928A95E9F70E94CE088CC0882315
:1014D00009F48DC0809127028D1111C080912602E0
:1014E0008C110DC0E1100BC0F8019683C8010E9459
:1014F000C60687E0F50111928A95E9F778C0C80120
:101500000E941F07882309F42DCFEE2009F42ACF6B
:1015100020912C02822F82958F7090E002970CF41C
:10152000B0CF80912602909127029A8389839C8272
:101530008B8280912A028D831E822F83CE01019699
:101540009ECF483C510508F040C0882309F44DC0A7
:10155000FE2CEE2009F406CF809127028D1127C0C2
:10156000809126028C1123C090912C0290FD16C010
:10157000892F82958F70282F30E02115310571F069
:10158000F80196832F30310509F451CF8F5F982FE2
:101590009295907F86818F70892B48CF87E0F801E4
:1015A000A6E2B2E001900D928A95E1F720C0C80151
:1015B0000E941F07811165CF80912C02816080936A
:1015C0002C02C8010E94C60612C0682D9A8A898A18
:1015D000A6017A899E2D0E942C0787E0F5011192C1
:1015E0008A95E9F72FCFF12C02C0FF24F3948F2DB9
:1015F0006496ECE00C945325AEE0B0E0E2E0FBE052
:101600000C944025288739874A875B876C877D87BC
:101610008E87CE0108960E945809882361F06C8558
:101620006623A9F1288539854A855B857D858E8568
:101630000E9436072CC087E0FE013896DE01119625
:1016400001900D928A95E1F76C85662301F1209156
:10165000ED0130E0C9010196877099274091EC01B6
:1016600050E084179507E1F16D8397E0929FD001D8
:10167000939FB00D1124A251BE4FFE0131960190EF
:101680000D929A95E1F78093ED010E94AC0817E066
:101690008091EC019091ED01891779F1189FC001BB
:1016A000112482519E4F0E945809882331F1E09104
:1016B000EC011E9FF0011124E251FE4F2081318187
:1016C000428153816481758186810E9436078091B1
:1016D000EC0190E00196877099278093EC01D8CFB8
:1016E0000E94FF061092ED011092EC01E6E2F2E09A
:1016F00087E0DF011D928A95E9F72E96E3E00C94CE
:101700005C25809135028695869586950895809111
:1017100035028770089590913502977081E009F441
:1017200080E0089580914102089590914102892BB3
:10173000809341020895809590914102892380937E
:101740004102089510924102089590914002892B20
:101750008093400208958095909140028923809360
:101760004002089510924002089508950E94B50B1A
:1017700008950E94B60B089590913702292F2823CF
:10178000821729F0982B909337020E94B90B089585
:1017900090913702292F282331F080958923809357
:1017A00037020E94B90B089580913702882329F0EF
:1017B0001092370280E00E94B90B08950F931F9397
:1017C000CF93DF930091000110910101C09141027C
:1017D00080914002C82B80913702882331F0C82BBA
:1017E0000E94E01A81110E94D40BF801C083C091BD
:1017F0000001D091010148E050E06DE272E0CE01BD
:101800000E947C25892B59F088E0FE01ADE2B2E010
:1018100001900D928A95E1F7CE010E947D1ADF9129
:10182000CF911F910F9108950E94DE0B08950E94A1
:10183000B50B08950E94170C089590913602292F38
:10184000282331F080958923809336020E941A0C58
:1018500008950E94B50B08959091B80292FF11C0AF
:1018600098E0899F90011124262B209335020E9435
:101870008807809135028695869586950E94290C69
:1018800008950E94880708951092350280E00E9412
:10189000290C089590913502809589238093350213
:1018A000282F277069F4981759F09091B80292FF89
:1018B00007C08695869586950E9498070E94440CDD
:1018C00008959091B80292FB222720F9281769F019
:1018D00080FB92F99093B8028091B7029091B80280
:1018E0000E94A90C82E00E944A0C08958091B802DF
:1018F00082FB882780F991E089270E94610C089576
:1019000081E00E94610C089580E00E94610C0895BE
:101910006FEF7FEF80E090E00E94CE25089580E099
:1019200090E00E949A2521E0853E9E4F09F020E03C
:10193000822F089582E090E00E949225089583E02E
:1019400090E00E949225089584E090E00E949A25FC
:101950000895BC0184E090E00E94CE250895AB017B
:10196000BC018FE090E00E94C2250895AB01BC014C
:1019700083E190E00E94C225089560E070E0CB0111
:101980000E94B60C089560E070E0CB010E94AF0C9D
:101990000E94BD0C0895A8E0B0E0E1EDFCE00C94DD
:1019A000412565EE7EEF80E090E00E94CE2560E06C
:1019B00082E090E00E94B02581E090E09093EB01FE
:1019C0008093EA0161E083E090E00E94B02560E04E
:1019D00074E184E090E00E94CE2560E086E090E033
:1019E0000E94B02560E087E090E00E94B02540E0D2
:1019F00050E0BA0188E090E00E94C22560E083E2F6
:101A000090E00E94B02560E08CE090E00E94B0255C
:101A100060E08DE090E00E94B02519821A821B825E
:101A20001C821D821E821F82188648E050E067E1FA
:101A300070E0CE0101960E94A02540E050E0BA017E
:101A40008FE190E00E94C2250E94C30C2896E2E03C
:101A50000C945D250E94CB0C0895682F8EE090E0D9
:101A60000E94B0250895A6E0B0E0E9E3FDE00C9403
:101A70003F250E94211C8C018091420290914302DB
:101A80000817190781F019821A820E94211C682FF9
:101A900049815A81792F80E090E00E94BE03109323
:101AA0004302009342022696E4E00C945B250E94D8
:101AB000791060935C0270935D0280935E02909354
:101AC0005F02609358027093590280935A02909378
:101AD0005B02089581E008950E94691208950895B7
:101AE0000E946F0D08950E946F0D08950E94730D5E
:101AF00008950E946F0D08950E94790D08950E9427
:101B00006F0D089583E990E10E9471140E947F0D8A
:101B10000E947C0D08950E94700D0E946F0D089523
:101B20000E948F0C811102C00E942A0D0E949A0C03
:101B3000809360020E94A40C9093B8028093B70235
:101B40000E9494140E949F0C90E00E944F07809185
:101B5000E8019091E9010E946D0708950E94181C08
:101B60000E9453100E9471120E94B9110E94900DA0
:101B70000E9498030E9405160E9483120E94760D0F
:101B80000895A6E0B0E0E7ECFDE00C9435250E9456
:101B90006A0D811103C00E94330D62C00E94DE11E4
:101BA00024E4E22E22E0F22E5701D12CF50101911E
:101BB00011915F018D2D0E94951080279127D3945C
:101BC000FAE0DF1619F0892B89F302C0892B19F38B
:101BD0008091600281FD0E949E100E946C0D782E03
:101BE00010E066246394812F0E9495104C01F70148
:101BF000A080B180A826B926A114B10449F100E063
:101C0000CC24C394D12CC5018C219D21892BC1F0FA
:101C10007720B1F009831A830E94211C9C838B8357
:101C20006D8221E0C4018C219D21892B09F420E0E3
:101C300049815A816B817C818D81922F0E94BE03E4
:101C40000F5FCC0CDD1C0930F1F6F7019182808228
:101C50001F5FF2E0EF0EF11C1A3029F60E94570DBB
:101C60000E9469120E94CA180E94A5032696EEE0FF
:101C70000C9451251F93CF93DF930E94680FEC01C2
:101C8000C11580E5D807E8F5C11590E4D90708F03B
:101C9000A8C0C03ED10530F5CD3CD10508F094C0B8
:101CA000C83AD10578F4C53AD10508F083C0C130EF
:101CB000D10509F47CC008F4F2C0C430D10508F0A5
:101CC000F1C0EDC0C33CD10508F0E9C0C85AD0E06E
:101CD000CC0FDD1FC959DE4F0990D881C02DCE0130
:101CE0009464E1C0C11580E2D80708F0CBC0C115EB
:101CF00091E0D90708F06BC0C83ED10508F4D2C006
:101D0000CEC0C03682E5D80728F5C03492E5D907A1
:101D100008F079C0C03282E5D80708F06CC0C11560
:101D200092E5D90708F481C04C2F4695469580E28C
:101D3000489FA0011124C37021E030E0C90102C016
:101D4000880F991FCA95E2F7EA01C82BD92BCE015B
:101D50009D68A9C0C03A82E5D807B8F48C2F8F716E
:101D6000C03892E5D90708F07BC08695869590E249
:101D7000899F90011124C37081E090E002C0880F18
:101D8000991FCA95E2F79A6868C0C03C82E5D807F7
:101D900008F46DC0C03E92E5D90708F080C0CF714D
:101DA000DD27DC2FCC27CE01806F906A7CC081E0DC
:101DB00090E079C0C55AD0E0C356DE4F8881C82F65
:101DC000D0E0CE0190646FC0CE0190656CC08D2FC5
:101DD0000E940410182FCE0199270E94680F1F71CE
:101DE0005CC0CE0199270E94680FCC27DF70D06AB3
:101DF0008C2B9D2B58C0CF71D0E0DC2FCC27CE018F
:101E0000816F906A50C08C2F8F718695869590E275
:101E1000899F90011124C37081E090E002C0880F77
:101E2000991FCA95E2F79C6818C08C2F8F710E9489
:101E3000041095E0D695C7959A95E1F7CF70D0E05C
:101E4000DC2FCC27282F30E084FF05C084E0220F50
:101E5000331F8A95E1F7D069CE01822B932B23C0E3
:101E600090E0D82FCC27CE01846F906A1CC08C2FB5
:101E70008F710E9404108F7190E0D82FCC27CE0173
:101E8000906211C08D2F8F710E940410182FCE0107
:101E900099270E94680F1F719062912B04C080E007
:101EA00090E001C0CE01DF91CF911F9108957A306B
:101EB00038F4693028F4462F672F0E949D02089558
:101EC00080E090E008950E94570F0E943A0E089516
:101ED0008238910569F1B0F48133910509F475C038
:101EE00048F48932910509F467C08A32910509F4F2
:101EF00071C008958533910509F459C0893391055E
:101F0000B9F00895833E910589F138F4803E91053A
:101F1000D1F0823E910529F10895863E9105C9F1DF
:101F2000873E9105D9F1843E910509F06CC027C028
:101F30002091B70220FD57C021FD55C02091B80265
:101F400023FD5BC008958091B70280FD48C0809159
:101F5000B80280FF48C08091B70284FD46C083EE7E
:101F600051C08091B70282FF3CC0F5CF8091B7028B
:101F700082FD37C08091B80280FD35C0ECCF8091E2
:101F8000B80281FF36C08091B70284FD2EC087EE73
:101F900039C08091B70283FF2AC0F5CF8091B70284
:101FA00083FD25C08091B80281FD23C0ECCF8091D4
:101FB000B70285FD22C01FC08091B70285FD1BC0FE
:101FC0008091B80283FF19C00AC08091B70286FDD4
:101FD00016C017C08091B70286FD13C010C089E3F8
:101FE00011C082EE0FC080EE0DC080E00BC086EE07
:101FF00009C084EE07C085E305C089E203C08AE218
:1020000001C081E390E008959091B70292FF10C063
:1020100041E0282F2471243009F040E031E0282FDE
:102020002871283009F030E0431711F02CE08227A6
:1020300093FF10C041E0282F2471243109F040E0C3
:1020400031E0282F2871283109F030E0431711F0D2
:102050002CE082273091B80230FF10C051E0282FC9
:102060002171213009F050E041E0282F28712830FB
:1020700009F040E0541711F029E0822731FF10C029
:1020800041E0282F2171213109F040E031E0282F73
:102090002871283109F030E0431711F029E0822738
:1020A00094FD877E08951092B9021092BA021092A0
:1020B000BB021092BC020895CF92DF92EF92FF9282
:1020C0006B017C010E94691281110EC00E942D1CBF
:1020D000C61AD70AE80AF90AC092B902D092BA021F
:1020E000E092BB02F092BC02FF90EF90DF90CF90A5
:1020F00008950F931F930E946912882319F00E947C
:102100002D1C0EC00E942D1C0091B9021091BA0224
:102110002091BB023091BC02600F711F821F931F80
:102120001F910F91089580E00895E82FF0E0EE0FE1
:10213000FF1FEE52FD4F808191810895089580EA3E
:102140008A95F1F7089500C008950E949F100895A0
:1021500008950E94A81008950E94A91008950E9451
:10216000A81008950E94A8100895AAE0B0E0EBEB33
:10217000F0E10C943E250E9469126091E6028823EA
:1021800009F443C05AE0F52E8E010F5F1F4FF8018E
:102190008F2D11928A95E9F7862F90E0880F991F6D
:1021A000B8018E529D4F0E949112882399F0809120
:1021B000BD0290E0880F991F4AE050E0B8018E52AE
:1021C0009D4F0E947C2521E020936102892B61F4C0
:1021D00010E018C0809161028823D1F3F8011192B8
:1021E000FA94E9F710926102A091BD02B0E0AA0F43
:1021F000BB1FAE52BD4F8AE0F80101900D928A9547
:10220000E1F711E00E94AC1011C08091BD0270E0B6
:10221000660F771F6E527D4F90E0880F991F8E5288
:102220009D4F0E941A130E94B21010E0812F2A962F
:10223000E5E00C945A25F894E82FE295EF70F0E071
:1022400031A1282F2F7081E090E001C0880F2A95DE
:10225000EAF7982F9095932391A392A1892B82A3BB
:10226000789408950F931F93CF93DF93C9EAD1E039
:1022700089918F3F11F00E941B1181E0CE3AD8075F
:10228000B9F7C0EAD1E009EA11E089918F3F11F076
:102290000E941B110C171D07C1F7DF91CF911F91F1
:1022A0000F910895A0E0B0E0E8E5F1E10C943A2543
:1022B0008C01C62FD0E0CE0187559E4F6C01FC01EA
:1022C00090819F3F09F450C0B62EF894E92FE29513
:1022D000EF70F0E081A19F7021E030E001C0220F9B
:1022E0009A95EAF7822B81A382A12095282322A325
:1022F00078940E94A310E0EAF1E049EA51E021E07D
:1023000030E0E12CF12C61916F3F89F0A62FA2956E
:10231000AF70B0E090968C9190E06F7002C0959590
:1023200087956A95E2F780FD02C0C90102C080E08E
:1023300090E0E82AF92A220F331F4E175F0719F79A
:10234000F60180818F3F11F00E941B1161E0E114C2
:10235000F10409F460E08B2D0E94A510CC0FDD1F65
:10236000C00FD11FF982E882CDB7DEB7E9E00C9447
:1023700056258091020180910201811102C095E0F1
:1023800001C090E09093E60285E0891B8093BD0236
:102390000E94321184E1E2EDF2E0DF01982F1D92FC
:1023A0009A95E9F7EEEBF2E0DF011D928A95E9F7E5
:1023B00085E00E941E120E947D020895A4E1B0E013
:1023C000E4EEF1E10C943E258E010F5F1F4F84E196
:1023D000F80111928A95E9F7F12C6F2DC8010E943E
:1023E0005211F394F5E0FF12F8CF44E150E0B80148
:1023F0008EEB92E00E947C2521E0009709F420E01A
:10240000892B41F084E1F801AEEBB2E001900D922E
:102410008A95E1F76091E60270E0660F771F6E52D1
:102420007D4F45E08EEB92E00E941F12182F0E9414
:10243000B510812B6496E5E00C945A250895EF922F
:10244000FF920F931F93CF93DF937C018B01C42FD7
:10245000222351F081E0809364020E94211C90931A
:1024600063028093620204C080916402811102C001
:1024700080E01CC080916202909163020E94391C2E
:102480000597B0F3D0E0CC0FDD1FAE01B701C80156
:102490000E947C25892B39F0AE01B701C8010E944A
:1024A000892581E001C080E010926402CDB7DEB7DB
:1024B000E6E00C945925CF930E940A25C82F81117C
:1024C00002C00E9405258C2FCF910895809168024B
:1024D00008958091670208950E94691291E089270A
:1024E00008950E945B12809367020E946C12809391
:1024F00068020E946612809302010E946912811193
:102500000E94C91208950E946912811102C00E949E
:10251000CC12089581E0909169029A3008F080E031
:1025200008950F931F93CF93DF93EC018B0180915C
:1025300069028A3038F4B801CE010E941713811164
:102540001DC00AC080916502909166020E94391CEC
:10255000843F914080F715C0809169028F3F19F048
:102560008F5F80936902809169028A3060F00E94D7
:10257000211C909366028093650203C01092690249
:1025800002C080E001C081E0DF91CF911F910F91E7
:1025900008950E940D1D08950E94101D0895A0E049
:1025A000B0E0E5EDF2E10C943C257901C82F880FED
:1025B000DD0B41155105A9F0FE0193E0EE0FFF1F61
:1025C0009A95E1F7ED5FFE4F8181928186599D4F8B
:1025D000208130E04217530708F49A01A9010E94B4
:1025E0008925CE010E94F81DD82E8823D1F001152F
:1025F0001105B9F083E0CC0FDD1F8A95E1F7FE01EC
:10260000ED5FFE4F438150E00417150708F4A80161
:10261000CD5FDE4F6C817D8166597D4FC7010E9481
:1026200089258D2DCDB7DEB7E7E00C9458250E94A3
:102630000C1408950E9423140895A4E0B0E0E3E28E
:10264000F3E10C943F2560918B0270918C02809194
:102650008D0290918E020E94481C6436710581059E
:10266000910528F10E947910DC01CB010296A11D91
:10267000B11D89839A83AB83BC8300E010E020E026
:1026800030E044E050E0BE016F5F7F4F82E00E9487
:10269000CF12182F882361F00E942D1C60938B02AB
:1026A00070938C0280938D0290938E0201C011E092
:1026B000812F2496E4E00C945B25A0E0B0E0E3E6F3
:1026C000F3E10C9439257C015B016A010E948A12B6
:1026D000811103C001E010E002C00AE010E0C1E097
:1026E000D0E0B501C701F6010995811115C0219609
:1026F0000C171D0794F0CC9F9001CD9F300D300D2D
:10270000112480E090E045E34A95F1F7000001963E
:1027100082179307C1F7E5CF81E0CDB7DEB7EAE0D6
:102720000C945525ABE0B0E0E8E9F3E10C943925D1
:102730007B01C090AE01D090AF0101E010E09E019E
:10274000255F3F4F40E050E060E070E080E00E9495
:10275000CF12182F882309F43EC056018FEFA81A14
:10276000B80A6091870270918802809189029091E5
:102770008A020E94481C643671058105910518F192
:102780000AE010E09E012F5F3F4F40E050E060E024
:1027900070E081E00E94CF12182F6AE070E0C5015E
:1027A0000E94061691E02B85281390E0192339F139
:1027B0000E942D1C60938702709388028093890287
:1027C00090938A0211C06AE070E0C5010E9406166B
:1027D0009B858913D5CF8AE0F6013196DE011196EB
:1027E00001900D928A95E1F7112349F08AE0FE01EC
:1027F0003196ADE7B2E001900D928A95E1F78AE05B
:10280000EDE7F2E0D70101900D928A95E1F7812F73
:102810002B96EAE00C9455250F931F93CF93DF93EB
:10282000EC018B0142E953E10E945D13882331F0F2
:102830004DE153E1B801CE010E945D13DF91CF91CC
:102840001F910F9108950F931F93CF93DF93C09122
:10285000AE01D091AF01CE0101962AE0FB01DC016F
:1028600001900D922A95E1F76AE070E00E94061649
:1028700088836B857C858D859E850091790210917A
:102880007A0220917B0230917C02601771078207E7
:10289000930751F06093790270937A0280937B02E0
:1028A00090937C020E945C10DF91CF911F910F9159
:1028B00008950E94C10D08950E94B81B0E94B91F7F
:1028C0000E94820D0E94D31F0E94AE0D0E94E01F45
:1028D0000E94E51F0E9459140E94FF1F0E948B0D49
:1028E000F7CF9093B1018093B00108950E94880CB6
:1028F000089580E00E949510817008950E94DE1175
:102900002FEF86E791E0215080409040E1F700C032
:1029100000000E94DE110E947914882321F00E9499
:1029200076140E948A1C08950E947E1408958932AC
:1029300089F1F0F4843171F1B0F4873009F077C097
:1029400081E08093220184E1809321018AE08093D9
:1029500020018EE180931F0188E080931C0188E2B2
:1029600080931B0164C092EE980F9A30F0F05FC024
:10297000803509F444C028F48F3409F058C08AE047
:102980003FC0813529F0823509F051C081E038C05F
:102990008FEF36C080919102882379F110929102D5
:1029A0001092900210928F0242C08D51809391023A
:1029B000833099F038F4813069F08230D9F481E2C3
:1029C00091E00DC0853099F078F0863099F48BE174
:1029D00091E005C082E291E002C080E291E0909334
:1029E000900280938F0223C08FE191E0F8CF8CE1B9
:1029F00091E0F5CF109291021AC080E0089586EF21
:102A0000E0918F02F0919002309789F02081082E9A
:102A1000000C990B820F911D8F3F910519F014F056
:102A20008FEF04C097FF02C0108201C0808381E055
:102A300008958B3109F469C058F58B3009F490C0C2
:102A400078F4863009F446C020F4853009F44CC08F
:102A50008CC0873009F44BC0883009F481C085C030
:102A6000803109F465C068F48E3009F07EC0809131
:102A7000600282FB222720F991E0922790FB82F9E5
:102A80004DC0863109F46CC0893109F469C06DC04C
:102A90008A32E9F060F4873209F464C028F48E3198
:102AA00008F463C08D514FC08932F1F05EC08334A9
:102AB00050F48A3308F046C0853309F453C0883394
:102AC00009F44EC052C0833409F44CC04EC00E9479
:102AD0002A0D46C080916002817F8E7F80936002C4
:102AE00081E08093920208950E94190339C0809179
:102AF0006002982F9095917090FB80F9809360020E
:102B000091112EC0897F877F10C08091600281FB68
:102B1000222720F991E0922790FB81F980936002AF
:102B20009923F1F08091600281608093600218C067
:102B30008091600283FB222720F991E0922790FB8D
:102B400083F9ECCF895321E030E0A90102C0440FA2
:102B5000551F8A95E2F7CA010E944F070E94FF069F
:102B600081E0089581E090E0F7CF80E0089580E073
:102B700008950E94B7150895CF93C82F80919202AF
:102B8000813069F038F08230C1F58C2F0E949714A3
:102B900081E039C00E94920B823289F504C00E9404
:102BA000920B823261F48C2F0E94B915811104C0FE
:102BB0008C2F0E9419151FC081E090E01CC08C2F43
:102BC0000E94B715811116C0C43189F058F4CB307A
:102BD00089F0C031B1F482E08093920288E30E94D0
:102BE000971408C0C93219F0C83321F00AC01092F6
:102BF000920207C081E0817006C01092920280E0CC
:102C000002C080E0F8CFCF9108950895FC01680FCD
:102C1000791F8FEF91E3E617F70771F02191822773
:102C200028E030E087FF03C0880F892701C0880FA4
:102C300021503109B9F7EFCF0895CF93DF93863153
:102C40009C4709F5EB010E94920B9D81992371F03D
:102C50008A7A91E009F490E090939302811102C086
:102C600089E201C085E30E942A1B09C0809193027A
:102C7000811102C089E201C085E30E94321B0E94DB
:102C8000140C80E001C081E0DF91CF910895CF93D3
:102C9000DF93FC01DB0115968C91882309F4DDC0DC
:102CA0009F0130572332310508F0D8C0EF010E9450
:102CB000A40C9093B8028093B702FE01E150F04754
:102CC000E232F10520F4EE59FF4F0C942B25809150
:102CD000B7028160AAC08091B8028860B2C08091BA
:102CE000B7028260A2C08091B70220C08091B70273
:102CF00088609BC08091B8021EC08091B80282603B
:102D0000A0C08091B702806190C08091B7028062BC
:102D10008CC08091B702806488C00E94FF068091B9
:102D2000B702806882C08091B702886084607DC0ED
:102D30008091B8028260816084C08091B7028E7FEA
:102D400074C08091B802877F7CC08091B7028D7F6C
:102D50006CC08091B70220C08091B702877F65C0A8
:102D60008091B8021EC08091B8028D7F6AC08091A8
:102D7000B7028F7E5AC08091B7028F7D56C0809176
:102D8000B7028F7B52C00E94FF068091B7028F77F7
:102D90004CC08091B702877F8B7F47C08091B8027B
:102DA0008D7F8E7F4EC08091B70282FB222720F953
:102DB00091E0922790FB82F990FB83F936C08091D5
:102DC000B802982F909591708E7F892B90FB81F996
:102DD00038C08091B70286FB222720F991E0922724
:102DE00090FB86F922C00E94FF068091B70287FB04
:102DF000222720F991E0922790FB87F916C081E005
:102E000001C080E00E942D0D1EC08091B70284FB9E
:102E1000222720F991E0922790FB84F906C0809147
:102E2000B702982F909590FB80F98093B7020BC062
:102E30008091B80283FB222720F991E0922790FB32
:102E400083F98093B8028091B7029091B8020E94F2
:102E5000A90C0E94FF0680E001C081E0DF91CF91C4
:102E60000895282F35EB2303C001112497FF03C0D9
:102E70008058910902C080589F4F892F08958091F2
:102E80009A0280FF06C06091200170E0660F771FF4
:102E900026C081FF04C06091200184E005C082FF4C
:102EA00007C06091200188E0689FB001112417C01D
:102EB000909199029923D1F060911F01961788F79C
:102EC0002091200188E0289F90011124929FA00169
:102ED000939F500D112470E0CA010E94172560389D
:102EE000710540F46115710519F406C068E070E0E1
:102EF000862F08958FE7089581E0089580919A02C2
:102F000080FF08C060911C0170E07595679575950C
:102F1000679521C081FF06C060911C0170E0759526
:102F2000679519C082FF04C060911C0170E010C059
:102F300090919802992399F060911B019617A0F740
:102F400080911C01899FC001112470E00E94172507
:102F50006038710540F46115710519F406C061E02F
:102F600070E0862F08958FE7089581E008958D3CE5
:102F700021F40E943F17819504C08E3C29F40E94E1
:102F80003F1780939E0208958F3C21F40E943F17C3
:102F9000819504C0803D29F40E943F1780939D02D3
:102FA0000895893D19F40E947E1705C08A3D31F4C9
:102FB0000E947E17819580939F0208958B3D21F496
:102FC0000E947E17819504C08C3D29F40E947E17D3
:102FD0008093A00208959FE2980F983078F421E042
:102FE00030E0A90102C0440F551F9A95E2F7CA01CB
:102FF00090919C02892B80939C0208958D3D21F431
:1030000080919A0281600BC08E3D21F480919A02DA
:10301000826005C08F3D29F480919A02846080937C
:103020009A0208958D3C39F490919E0297FF35C025
:1030300010929E0259C08E3C29F490919E0219165E
:10304000BCF32BC090919D028F3C29F497FF25C0C3
:1030500010929D0249C0803D19F41916CCF31DC091
:1030600090919F02893D29F41916BCF410929F0299
:103070003BC08A3D19F497FF10C0F8CF8B3D39F45F
:103080009091A00297FF09C01092A0022DC08C3D24
:1030900021F49091A0021916BCF39FE2980F98308A
:1030A00080F421E030E0A90102C0440F551F9A9539
:1030B000E2F7CA01809590919C02892380939C023B
:1030C00013C08D3D21F480919A028E7F0BC08E3DFE
:1030D00021F480919A028D7F05C08F3D29F4809163
:1030E0009A028B7F80939A0280919D02811106C083
:1030F00080919E02811102C01092990280919F02DC
:10310000811106C08091A002811102C01092980224
:1031100008950E94211C20919D02211104C020913C
:103120009E02222321F09093970280939602209191
:103130009F02211104C02091A002222321F090932C
:103140009502809394028BE992E00E94881A089578
:10315000EBE9F2E086E0DF011D928A95E9F7109233
:1031600099021092980210929A020895FC018281AD
:1031700081110DC0838181110AC08481811107C032
:1031800091E08581811101C090E0892F01C081E02B
:1031900081700895A6E0B0E0E0EDF8E10C944025E0
:1031A00086E0EBE9F2E0DE01119601900D928A953E
:1031B000E1F710929D0210929E0210929F021092CF
:1031C000A0028B81811104C08C81882309F456C030
:1031D00080919602909197020E94391CAC019091C7
:1031E0009902992339F02091210130E02417350705
:1031F00058F044C0209122018AE0289F90011124B8
:103200002417350718F03AC09F3F19F09F5F90933D
:1032100099021B81112361F00E943F17111614F0CF
:103220009FEF01C091E0989F902D112490939D02F3
:103230001C81112361F00E943F17111614F09FEFBB
:1032400001C091E0989F902D112490939E0280914F
:103250009D02882399F010919E02112379F00E941B
:103260003117811101C081E080939D02812F0E945E
:103270003117811101C081E080939E028D818111FF
:1032800004C08E81882309F456C0809194029091E5
:1032900095020E94391CAC0190919802992339F053
:1032A00020911D0130E02417350758F044C02091CB
:1032B0001E018AE0289F900111242417350718F079
:1032C0003AC09F3F19F09F5F909398021D81112390
:1032D00061F00E947E17111614F09FEF01C091E07B
:1032E000989F902D112490939F021E81112361F0CD
:1032F0000E947E17111614F09FEF01C091E0989F75
:10330000902D11249093A00280919F02882399F020
:103310001091A002112379F00E943117811101C090
:1033200081E080939F02812F0E943117811101C09B
:1033300081E08093A002BE016F5F7F4F8BE992E036
:103340000E94451B811105C08BE992E00E94B618CE
:1033500081110E94891886E0FE013196ABE9B2E046
:1033600001900D928A95E1F72696E3E00C945C2596
:103370000F931F93CF93DF93C42FD22FFC0185812E
:103380008823B1F04093A3020E94211C9093A202D3
:103390008093A10280E28C0F883008F04DC0C77086
:1033A00081E001C0880FCA95EAF70E94A80444C0D2
:1033B0008091A302481330C08091A1029091A20293
:1033C0000E94391C883C910538F510E21D0FCD177D
:1033D000B9F080E28C0F883040F4C77081E001C002
:1033E000880FCA95EAF70E94AF04183010F581E003
:1033F0009D2F977001C0880F9A95EAF70E94A80444
:10340000802F0E949E041830B8F4D77081E001C06C
:10341000880FDA95EAF70AC080E28C0F883060F4F2
:10342000C77081E001C0880FCA95EAF70E94AF0417
:1034300003C0802F0E949E04DF91CF911F910F91B6
:1034400008950F93FC01E851FC47E730F10590F532
:10345000CB01EC57FF4F0C942B2506E221EE41EEF9
:103460006AE17CE723C007E225EE45EE6BE17CE7ED
:103470001DC006E221EE40EE68E17CE717C007E2DE
:1034800025EE44EE69E17CE711C006E221EE42EE52
:103490006CE17CE70BC007E225EE46EE6DE17CE7D0
:1034A00005C008E221E045EE6EE17CE70E94B81914
:1034B00080E008C0FB018581882319F01092A302E7
:1034C00001C081E00F9108959093AA028093A90210
:1034D00008950E946912811103C08091A402089589
:1034E000E091A902F091AA02309729F00190F081B1
:1034F000E02D0995089580E00895E091A902F091EA
:10350000AA02309721F00280F381E02D09950895F9
:10351000E091A902F091AA02309739F022E0DC0193
:103520002C930680F781E02D09950895A3E0B0E083
:10353000ECE9FAE10C9441252091A7023091A80210
:1035400028173907A1F09093A8028093A702E09171
:10355000A902F091AA02309751F023E029839B83BE
:103560008A830084F185E02DCE010196099523968A
:10357000E2E00C945D25A3E0B0E0E1ECFAE10C940C
:1035800041252091A5023091A60228173907A1F004
:103590009093A6028093A502E091A902F091AA025D
:1035A000309751F024E029839B838A830084F1853E
:1035B000E02DCE01019609952396E2E00C945D255D
:1035C000E0910001F0910101329697E080E0915086
:1035D00029F021912223D9F38F5FF9CF0895882311
:1035E00071F02091000130910101F9013296285FBC
:1035F0003F4F9191891729F0E217F307D1F780E047
:10360000089581E008959C01FC0132969FEF80E0CF
:103610004191461789F09F3F19F4411101C0982F3D
:103620008F5F8630A9F79F3F39F0F901E90FF11D4F
:1036300097FDFA956283089508959C012A5F3F4F94
:10364000FC014281461301C0128201968217930742
:10365000B9F70895682F80910001909101010E94AF
:10366000031B0895682F80910001909101010E9431
:103670001D1B0895E0910001F0910101329686E052
:10368000DF011D928A95E9F70895DC01FB0111968F
:103690009C9111978181981321C012968C91129759
:1036A000882319F09281891319C013968C9113976E
:1036B000882319F09381891311C015968C91159761
:1036C000882319F09581891309C014969C91992338
:1036D00039F081E02481291304C002C081E001C0D7
:1036E00080E08170089508950E94731B089583E01F
:1036F0008093AB020E94741B0895811102C081E087
:1037000001C082E08093AB020E94741B08950E9466
:103710007D1B089581E08093AB020E94741B089585
:103720000E948A1B089508950E94931B08950E9489
:10373000941B08950E94931B08950E94931B089563
:103740000E94931B0895CF930E949D1B0E94DE113F
:103750000E949A1BC0E08C2F0E949510892B29F49F
:10376000CF5FCA30C1F780E001C081E0CF910895FA
:1037700085B7806885BF85B7806885BF08951F922B
:103780000F920FB60F9211248F939F93AF93BF9315
:103790008091AC02811113C08091E7029091E80200
:1037A000A091E902B091EA024196A11DB11D80935A
:1037B000E7029093E802A093E902B093EA02BF9176
:1037C000AF919F918F910F900FBE0F901F90189502
:1037D0008091EF02843031F10E947C031092AC02A0
:1037E00020E488E190E00FB6F894A89580936000FB
:1037F0000FBE2093600083B7817F846083BF83B74F
:10380000816083BF7894889583B78E7F83BF0FB61E
:10381000F894A89580916000886180936000109270
:1038200060000FBE08950E94FF060E948103089564
:1038300082E084BD93E095BD9AEF97BD80936E00C2
:1038400008952FB7F8948091E7029091E802A09133
:10385000E902B091EA022FBF08952FB7F894609162
:10386000E7027091E8028091E9029091EA022FBF8D
:1038700008959C014FB7F8948091E7029091E80277
:10388000A091E902B091EA024FBF821B930B089509
:10389000CF92DF92EF92FF922FB7F894C090E70299
:1038A000D090E802E090E902F090EA022FBFA70171
:1038B0009601261B370B480B590BCA01B901FF9023
:1038C000EF90DF90CF90089578941F920F920FB6EB
:1038D0000F9211248F939F93AF93BF938091E70230
:1038E0009091E802A091E902B091EA020196A11D2F
:1038F000B11D8093E7029093E802A093E902B09390
:10390000EA02BF91AF919F918F910F900FBE0F90E0
:103910001F90189581E08093E00080E28093D800AA
:103920001092C9008FE19EE40197F1F700C00000FA
:1039300087E090EBDC018093F8029093F902A0936A
:10394000FA02B093FB029CE088E10FB6F894A895C8
:10395000809360000FBE90936000FFCF9CE088E1F1
:103960000FB6F894A895809360000FBE9093600006
:10397000FFCF8EE1489B02C08150E1F7489BFECF0C
:103980000895589880E28A95F1F7589A0895FC01B5
:103990002AE02A95F1F728E090E080E031E040E16C
:1039A0004A95F1F7880F489B02C08160932700C0B9
:1039B000000040E14A95F1F7215089F720E12A956E
:1039C000F1F729B100C0000030E13A95F1F721701C
:1039D00092272081920F90830895A1E0B0E0E3EF59
:1039E000FCE10C943D2519828C017C01E60EF11C52
:1039F0000E151F0551F00E94B91CCE0101960E94C0
:103A0000C71CF80181938F01F3CF81E09981911157
:103A100080E02196E6E00C945925509A589A089532
:103A20005098589AE89AE9E6F0E080818C7F80838C
:103A30000895615091E001C0990F6A95EAF720E07E
:103A400031E0992361F0492F482319F0589A232730
:103A500001C0589840E24A95F1F79695F2CF22239B
:103A600011F0589A01C0589880E28A95F1F7589859
:103A70000895FF920F931F93CF93DF93EC018C0176
:103A8000060F111DC017D10741F0F9900E94C11C0B
:103A900068E08F2D0E94191DF5CFCDB7DEB7E5E0A8
:103AA0000C945A251F920F920FB60F9211240F9368
:103AB0001F932F933F934F935F936F937F938F93B6
:103AC0009F93AF93BF93EF93FF93CF93DF931F9297
:103AD000CDB7DEB719820E94B91CCE0101960E94B3
:103AE000C71C082F069506950695902F96959570FC
:103AF000202F2570920F292F237096959695920F5F
:103B0000877089135FC0898181115CC0043008F01F
:103B100059C080E18A95F1F7589A509A82E08A95C7
:103B2000F1F700C0589888E0089F80011124D8015F
:103B3000AD5FBE4F1696ED91FC9117973097A9F0A7
:103B40006091AE017091AF0114962D913C91159743
:103B5000260F371F11968D919C911297680F791F30
:103B600013964C9113978C910995F801ED5FFE4FD8
:103B70006381662351F08091AE019091AF01248161
:103B80003581820F931F0E94391D0E94C11C80E164
:103B90008A95F1F758985098589A80E18A95F1F7EC
:103BA000F801ED5FFE4F6081662351F08091AE0118
:103BB0009091AF0121813281820F931F0E94ED1CF1
:103BC0000E94B91C0F90DF91CF91FF91EF91BF91AF
:103BD000AF919F918F917F916F915F914F913F91A5
:103BE0002F911F910F910F900FBE0F901F9018955E
:103BF0000F931F93CF93DF93843091050CF06DC02A
:103C0000EC01F894509A589885E08A95F1F70000F5
:103C10009C2F969595702C2F2570920F892F83706D
:103C20009695969523E0CC0FDD1F2A95E1F7980F26
:103C30008E01092B0E94C11C84E08A95F1F700C017
:103C400068E0802F0E94191D80E18A95F1F7509855
:103C5000589A489902C000C0FCCF87E090E0489B8A
:103C600008C0019721F4509A589A789436C000C041
:103C7000F6CFFE01ED5FFE4F6381662381F08091F8
:103C8000AE019091AF0124813581820F931F0E9474
:103C9000ED1C811104C0509A589A78941FC00E945C
:103CA000B91C80E28A95F1F75898509A80E18A957C
:103CB000F1F7CD5FDE4F6881662351F08091AE0150
:103CC0009091AF0129813A81820F931F0E94391D83
:103CD0000E94C11C789481E001C080E0DF91CF9107
:103CE0001F910F9108958091B502089508959B0149
:103CF0009091EF029430F1F48F708093E9008FEF90
:103D00009091E800815095FD06C095ED9A95F1F7E8
:103D100000008111F5CF8091E80085FF0BC0BA014A
:103D2000C90140E050E00E9477208091E8008E7742
:103D30008093E800089543E050E0BC0182E00E94D7
:103D4000771E089546E050E0BC0182E00E94771E95
:103D50000895CF93DF93EC0148E050E0BC0181E08F
:103D60000E94771E88E0FE01ADEAB2E001900D925C
:103D70008A95E1F7DF91CF9108958091EE0281114C
:103D800009C00E9402220E945F228091E2008460AA
:103D90008093E20008951092EE0208950E94901B15
:103DA00008956091EB0281E0611101C080E00E9402
:103DB000771B08959091EF0281E0943009F080E044
:103DC0006091EB020E947D1B089542E061EC81E06E
:103DD0000E947B2142E261EC82E00E947B21909173
:103DE000EF0281E0943009F080E06091EB020E94E4
:103DF000871B08958091F102833009F461C030F48B
:103E0000813071F0823009F49BC008958A3009F442
:103E100087C08B3009F46CC0893009F0A9C020C07C
:103E20008091F002813A09F0A3C08091E800877F79
:103E30008093E8008091F4029091F502892B21F49F
:103E400068E08DEA92E003C060E080E090E070E01E
:103E50000E94BC208091E8008B778093E800089551
:103E60008091F002813209F083C08091F402909138
:103E7000F502029708F07CC08091E800877F80936C
:103E8000E8008091E80082FD05C08091EF02811179
:103E9000F8CF6EC02091F3008091F20090E0922B59
:103EA000029731F48091F100813011F0863021F4D5
:103EB0008091F1008093B5028091E8008B7754C027
:103EC0008091F002813A09F053C08091F402909100
:103ED000F502892B09F04CC08091E800877F809320
:103EE000E8008091E80080FFFCCF80912D0137C071
:103EF0008091F0028132E1F58091F4029091F50217
:103F0000892BB1F58091E800877F8093E8000E94BB
:103F1000B0218091F20280932D010E94FF06089546
:103F20008091F002813221F58091E800877F8093B3
:103F3000E8000E94B0218091F3028093B6020895B8
:103F40008091F002813AA1F48091E800877F80930C
:103F5000E8008091E80080FFFCCF8091B60280935A
:103F6000F1008091E8008E778093E8000E94B021F4
:103F7000089584B7877F84BF0FB6F894A895809181
:103F80006000886180936000109260000FBE90E036
:103F900080E80FB6F89480936100909361000FBEA3
:103FA0000E948A1B08950E9402220E945F22E2EE74
:103FB000F0E080818460808378940E94EA240895F0
:103FC00083E291E00E94641A08958091EF028530A7
:103FD000A9F48091EF02853079F40E94E81B0E94D9
:103FE000A31B8823B1F38091ED02882391F30E94F3
:103FF00061200E94FF06EDCF0E94131C08950895D2
:104000009A014091F6025091F7020E94082008950B
:10401000492F552743305105C9F060F4413051050F
:1040200081F04230510509F044C08BE390E04AE74B
:1040300053E043C041325105E1F04232510549F1AC
:1040400038C082E190E045EB53E037C099278130DA
:10405000910549F028F0029761F5E6E4F3E005C028
:10406000E6E7F3E002C0E6E6F3E0849190E0AF011A
:1040700024C06115710541F061307105D1F489E00A
:1040800090E045EA53E019C089E090E04CE853E045
:1040900014C06115710541F06130710551F48BE771
:1040A00090E047EC53E009C084E490E042E454E03F
:1040B00004C080E090E040E050E0F901518340838B
:1040C000089580E189BD82E189BD09B400FEFDCF7C
:1040D0008091D8008F7D8093D8008091E00082602D
:1040E0008093E0008091E00081FDFCCF0895A0E086
:1040F000B0E0EDE7F0E20C943B25EC018B017A0196
:104100000E94CF21811133C0E114F10439F0F7018D
:1041100080819181081B190BC80FD91FC12CD12C8C
:104120000115110519F18091E80085FD16C08091F7
:10413000E8008E778093E800E114F10449F0F7017C
:1041400080819181C80ED91ED182C08285E00FC0C6
:104150000E94CF21882321F30AC089918093F10026
:1041600001501109FFEFCF1ADF0ADACF80E0CDB797
:10417000DEB7E8E00C9457252091F6023091F70263
:104180002617370748F06115710539F42091E800CA
:104190002E772093E80001C0B901FC0120E06115F1
:1041A000710579F18091EF028823F1F18530F1F109
:1041B0008091E80083FD3CC08091E80082FD2EC024
:1041C0008091E80080FFEBCF2091F3008091F20016
:1041D00090E0922B6115710551F08830910538F40B
:1041E00021912093F100615071090196F3CF21E0F4
:1041F000089709F020E08091E8008E778093E8002E
:10420000CECF2111CFCF0AC08091EF02882361F079
:10421000853061F08091E80083FD0AC08091E8005C
:1042200082FFF2CF80E0089582E0089583E0089550
:1042300081E008952091F6023091F70226173707A2
:1042400048F06115710539F42091E8002E7720932C
:10425000E80001C0B901FC0120E06115710591F190
:104260008091EF02882309F440C0853009F43FC0F3
:104270008091E80083FD3DC08091E80082FD2FC061
:104280008091E80080FFE9CF2091F3008091F20057
:1042900090E0922B6115710559F08830910540F43A
:1042A00024912093F1003196615071090196F2CF6B
:1042B00021E0089709F020E08091E8008E77809354
:1042C000E800CBCF2111CCCF0AC08091EF02882328
:1042D00061F0853061F08091E80083FD0AC0809133
:1042E000E80082FFF2CF80E0089582E0089583E045
:1042F000089581E00895982F973068F59093E9002C
:10430000981739F07091EC002091ED005091F00079
:1043100003C0242F762F50E021FD02C09F5FECCF19
:104320003091EB003E7F3093EB003091ED003D7F0C
:104330003093ED003091EB0031603093EB007093DF
:10434000EC002093ED005093F0002091EE0027FD4B
:10435000E5CF80E008958F708093E90081E00895B3
:104360008091F00287FF11C08091E80082FD05C0B6
:104370008091EF028111F8CF11C08091E8008B7716
:104380000BC08091EF02882349F08091E80080FF04
:10439000F8CF8091E8008E778093E800089520910F
:1043A000E4003091E50095E64091EC00842F8170A7
:1043B00040FF23C08091E80080FD1DC08091EF0286
:1043C000882399F0853099F08091EB0085FD11C02C
:1043D0004091E4005091E5002417350729F39150EE
:1043E00011F09A01E1CF84E0089582E0089583E01E
:1043F000089581E0089580E008954091E80042FF2B
:10440000DDCF08950E9471220E947922E0EEF0E053
:10441000808181608083E8EDF0E080818F77808308
:1044200019BCA7EDB0E08C918E7F8C9380818F7E3C
:1044300080831092EE0208950F931F93CF93DF9322
:104440000E9471220E947922C8EDD0E088818F7786
:10445000888388818068888388818F7D888319BC60
:104460001092EF021092EB021092ED021092EC0209
:1044700000EE10E0F80180818B7F8083888181606D
:10448000888342E060E080E00E947B21E1EEF0E082
:1044900080818E7F8083E2EEF0E080818160808386
:1044A000808188608083F80180818E7F808388810D
:1044B00080618883DF91CF911F910F910895E8ED7E
:1044C000F0E080818F7E8083E7EDF0E08081816085
:1044D000808384E082BF81E08093EE020E941C22F0
:1044E0000895E8EDF0E080818E7F80831092E200F5
:1044F00008951092DA001092E10008951F920F9231
:104500000FB60F9211242F933F934F935F936F93A6
:104510007F938F939F93AF93BF93EF93FF9380917C
:10452000E10082FF0BC08091E20082FF07C0809112
:10453000E1008B7F8093E1000E94E9248091DA0002
:1045400080FF1FC08091D80080FF1BC08091DA00DF
:104550008E7F8093DA008091D90080FF0DC080E1CA
:1045600089BD82E189BD09B400FEFDCF81E0809361
:10457000EF020E94BD1E05C019BC1092EF020E94FE
:10458000CB1E8091E10080FF19C08091E20080FF86
:1045900015C08091E2008E7F8093E2008091E2005E
:1045A00080618093E2008091D80080628093D8007F
:1045B00019BC85E08093EF020E94D11E8091E1003A
:1045C00084FF30C08091E20084FF2CC080E189BD6F
:1045D00082E189BD09B400FEFDCF8091D8008F7DB6
:1045E0008093D8008091E1008F7E8093E1008091DC
:1045F000E2008F7E8093E2008091E20081608093F0
:10460000E2008091EB02882311F084E007C08091E2
:10461000E30087FD02C081E001C083E08093EF02E8
:104620000E94DA1E8091E10083FF29C08091E200A0
:1046300083FF25C08091E100877F8093E10082E0C5
:104640008093EF021092EB028091E1008E7F8093C5
:10465000E1008091E2008E7F8093E2008091E20091
:1046600080618093E20042E060E080E00E947B2174
:104670008091F00088608093F0000E94CE1EFF9130
:10468000EF91BF91AF919F918F917F916F915F91CA
:104690004F913F912F910F900FBE0F901F90189543
:1046A0001F920F920FB60F9211242F933F934F93A7
:1046B0005F936F937F938F939F93AF93BF93CF93AA
:1046C000DF93EF93FF93C091E900CF708091EC00EE
:1046D000D82FD17080FDD0E81092E9008091F000D1
:1046E000877F8093F00078940E9494231092E900D1
:1046F0008091F00088608093F000CD2BCF70C09344
:10470000E900FF91EF91DF91CF91BF91AF919F9120
:104710008F917F916F915F914F913F912F910F906A
:104720000FBE0F901F901895AAE2B0E0EAE9F3E2FD
:104730000C944025E0EFF2E08091F100819322E0BB
:10474000E83FF207C9F70E94FA1E8091E80083FF54
:104750002EC18091F0029091F102492F50E04A3031
:10476000510508F024C1FA01E557FF4F0C942B25A1
:10477000803821F0823809F01AC108C08091EC021B
:104780009091ED02992389F082600FC08091F4022C
:104790008F70873008F00BC18093E9008091EB00A7
:1047A00085FB882780F91092E9009091E800977FB7
:1047B0009093E8008093F1001092F100D1C0282F6F
:1047C0002D7F09F0F4C0882319F0823061F0EFC02A
:1047D0008091F202813009F0EAC0933009F080E064
:1047E0008093ED022EC08091F20281112AC0809147
:1047F000F4028F702FEF280F263008F0D8C0809376
:10480000E9002091EB0020FF1CC0933021F480913F
:10481000EB00806214C09091EB0090619093EB00EC
:1048200021E030E0A90102C0440F551F8A95E2F74C
:104830004093EA001092EA008091EB008860809338
:10484000EB001092E9008091E800877F8093E800F8
:104850000E94B021ACC08111AAC01091F2021F7752
:104860008091E3008078812B8093E3008091E800C1
:10487000877F8093E8000E94B0218091E80080FF4C
:10488000FCCF8091E30080688093E300111102C0A7
:1048900082E001C083E08093EF0289C080588230BB
:1048A00008F085C08091F2029091F3028C3D53E0B4
:1048B000950779F583E08A838AE289834FB7F89474
:1048C000DE01139620E03EE051E2E32FF0E050934A
:1048D0005700E49120FF03C0E295EF703F5FEF7057
:1048E0008E2F90E0EA3010F0C79601C0C0968D93ED
:1048F0009D932F5F243149F74FBF8091E800877F58
:104900008093E8006AE270E0CE0101960E94BC202C
:1049100016C06091F4027091F502AE014F5F5F4FD7
:104920000E940020BC01892B09F441C09091E8004D
:10493000977F9093E80089819A810E941A21809143
:10494000E8008B778093E80032C0803881F5809151
:10495000E800877F8093E8008091EB028093F1006C
:104960008091E8008E7772CF811121C08091F20290
:104970009091F30299270297D4F48091E800877F01
:104980008093E8008091F2028093EB020E94B021B4
:104990008091EB02811106C08091E30087FD02C087
:1049A00081E001C084E08093EF020E94E51E8091C7
:1049B000E80083FF0AC08091E800877F8093E800C9
:1049C0008091EB0080628093EB00AA96E3E00C9468
:1049D0005C250895CF938091EF028823A1F0C091C8
:1049E000E900CF709091EC00892F817090FD80E8F4
:1049F000C82B1092E9008091E80083FD0E94942367
:104A0000CF70C093E900CF9108950E9402221092C6
:104A1000EF020895E8EDF0E08081806180838AE113
:104A20008A95F1F700C08091D9008170089597FBB5
:104A3000072E16F4009407D077FD09D00E94682550
:104A400007FC05D03EF4909581959F4F0895709591
:104A500061957F4F0895EE0FFF1F0590F491E02DB3
:104A600009942F923F924F925F926F927F928F9212
:104A70009F92AF92BF92CF92DF92EF92FF920F93ED
:104A80001F93CF93DF93CDB7DEB7CA1BDB0B0FB6F7
:104A9000F894DEBF0FBECDBF09942A8839884888B4
:104AA0005F846E847D848C849B84AA84B984C8844A
:104AB000DF80EE80FD800C811B81AA81B981CE0F41
:104AC000D11D0FB6F894DEBF0FBECDBFED01089526
:104AD000AA1BBB1B51E107C0AA1FBB1FA617B70724
:104AE00010F0A61BB70B881F991F5A95A9F7809540
:104AF0009095BC01CD010895FB01DC0104C08D91AE
:104B00000190801921F441505040C8F7881B990B3F
:104B10000895FB01DC0102C001900D92415050400C
:104B2000D8F70895F999FECF92BD81BDF89A9927DB
:104B300080B50895A8E1B0E042E050E00C94D6259D
:104B4000DC01A40FB51F4150504048F0CB01840F49
:104B5000951F2E910E94B12541505040D0F70895E5
:104B6000262FF999FECF92BD81BDF89A019700B426
:104B7000021639F01FBA20BD0FB6F894FA9AF99AC6
:104B80000FBE08950396272F0E94B1250E94B025DD
:104B9000252F0E94B125242F0C94B1250196272F93
:104BA0000E94B1250C94B025DC01CB01FC01F999E0
:104BB000FECF06C0F2BDE1BDF89A319600B40D9269
:0C4BC00041505040B8F70895F894FFCF22
:104BCC0038020100000001000000000000000A0192
:104BDC00000000040B000000000000280850011E1B
:104BEC000A1401731EA91E761EA21E9B1E01E20052
:104BFC00E900EA00B500B600B700CD008301CC0097
:104C0C008A01920194012102230224022502260228
:104C1C0027022A02B300B4006F0070009F01CB0181
:104C2C009F02A002818283E200E900EA00B500B68F
:104C3C0000B700CD008301CC008A019201940121C0
:104C4C0002230224022502260227022A02B300B400
:104C5C00006F0070009F01CB019F02A00281828334
:104C6C00946697C63435F4F5F6F7313332366A026A
:00000001FF
