:100000000C940C020C94531C0C9444020C94440267
:100010000C9444020C9444020C9444020C94440248
:100020000C9444020C9444020C9486230C9458249F
:100030000C945E1E0C9444020C9444020C944402F2
:100040000C9444020C9444020C9444020C94440218
:100050000C9444020C94021F0C9444020C9444022D
:100060000C9444020C9444020C9444020C944402F8
:100070000C9444020C9444020C9444020C944402E8
:100080000C9444020C9444020C9444020C944402D8
:100090000C9444020C9444020C9444020C944402C8
:1000A0000C9444020C9444020C94440273047304B0
:1000B0009F049F04070525053D063D063005C9053B
:1000C000DA05DA05C524EC24E425EC24E4253825FA
:1000D0005B25E425B225C125290035001E001F003F
:1000E0002000210022000000000046002B00140028
:1000F0001A00080015001700000000003E00015122
:1001000004001600070009000A0000000000490072
:10011000E1001D001B0006001900050000000000A2
:100120004C00E000E300E20002512C00000000005F
:100130000000230024002500260027002D002E00AB
:100140002A004A001C0018000C00120013002F00A7
:10015000300031004D000B000D000E000F00330089
:100160003400280000004B0005001100100036008C
:1001700037003800E50052004E00E6002C00000079
:10018000E60001514C00500051004F0001000100F9
:100190003A003B003C003D003E0000000000010032
:1001A00001004A0052004D004B0001000000000019
:1001B00001000100500051004F004E0001000000FE
:1001C0000000010001000100010001000100010028
:1001D0000000000001000100010001000100010019
:1001E0000000000000003F004000410042004300CA
:1001F000440045000100A8000100010001000100C9
:100200004B000100010001000100500051005200AC
:100210004F000100010001000000A9004E00010094
:10022000010001000100010001000100AA0001001D
:1002300001000000010001000100010001000100B7
:10024000005C010059005A005B005C005D0000008A
:100250000000010001004A0052004D004B00010067
:100260000000000001000100500051004F004E004E
:100270000100000000000100010001000100010078
:100280000100010000000000010001000100010068
:10029000010001000000000000005E005F0060003F
:1002A0006100620056006700010059005F006000B5
:1002B0006100010001000100010001005A005C0022
:1002C0005D005E0001000100010058000000AC006C
:1002D000620059005A005B000100010001000100AA
:1002E000AB0001000100000001000100010001005D
:1002F000010001000A0367006B006500790000003F
:100300000A0348006F006D00650000000403090443
:1003100009023B00020100A0FA09040000010301E8
:100320000100092111010001224000070581030895
:10033000000109040100010300000009211101006E
:1003400001227B0007058203200001120100020048
:10035000000008EDFE45440100010200010501090D
:1003600002A10185020901A1000509190129081549
:100370000025019508750181020501093009311533
:1003800081257F95027508810609381581257F959D
:100390000175088106050C0A38021581257F950133
:1003A00075088106C0C005010980A10185031901F6
:1003B0002AB700150126B700950175108100C00508
:1003C0000C0901A101850419012AA002150126A02A
:1003D00002950175108100C005010906A1010507FC
:1003E00019E029E71500250195087501810295019D
:1003F000750881010507190029FF150026FF0095E2
:1004000006750881000508190129059505750191F2
:1004100002950175039101C011241FBECFEFDAE0F0
:10042000DEBFCDBF04B603FE18C08091EE029091EE
:10043000EF02A091F002B091F1028730904BA740FB
:10044000B04B59F41092EE021092EF021092F002AB
:100450001092F102E0E0F8E3099511E0A0E0B1E0CC
:10046000E4E6FDE402C005900D92A43AB107D9F785
:1004700022E0A4EAB1E001C01D92AE3EB207E1F76E
:100480000E944F150C94B0260C9400000C9440115F
:1004900081E0089581E008950C94480208950C9439
:1004A0004E021F93CF93DF9300D000D01F92CDB7A1
:1004B000DEB749835A836B833091A70189819A8182
:1004C000311114C0662359F0222349F00E947A08A2
:1004D000182F682F89819A810E94230803C00E94E7
:1004E0004E08182F69817A81812F04C00E947A08F2
:1004F00069817A810F900F900F900F900F90DF918C
:10050000CF911F910C94B80FFC01262F408151818F
:100510006281738184810C94510281E00895CF93AC
:10052000DF93EC0160E00E948402BE01DF91CF9175
:100530000C944F020C9446020C943E1108950E94B4
:10054000CD060E949E022FEF84E39CE02150804064
:100550009040E1F700C000000C94281F0F931F93F8
:10056000CF93DF938C0161E00E948402EC01B8011B
:100570000E944C028823F1F1B801CE010E94601B59
:100580008823C1F1B801CE010E94FD17882391F1A3
:10059000B801CE010E94BC1A882361F1F801828162
:1005A000882309F1CB358DE5D807C1F050F4C1158A
:1005B000FCE5DF0781F0CF3DDC45A9F40E94B10DD9
:1005C00019C0CC35EDE5DE0761F0CD35DD4559F4D8
:1005D0000E94F40C08C00E949F020CC00E94FD0CF7
:1005E00002C00E94000DC801DF91CF911F910F91B1
:1005F0000C944A0280E0DF91CF911F910F910895F2
:100600000E94401E0C9419030E941C030C94461E69
:1006100008950C94080381E008950C940B03089549
:10062000CF93C82F0E9409038C2F0E940D03CF91F6
:10063000089580E00C9410030E947E1D0C9410031A
:100640000E947E1D9091A601891721F08093A6013A
:100650000C9410030895CF93DF93CDB7DEB72B979B
:100660000FB6F894DEBF0FBECDBF4F8358876987A2
:100670007A878B8761110E94400C9E012F5F3F4F4C
:1006800086E0F90111928A95E9F785E0FE01379637
:10069000D90101900D928A95E1F789819A814C8167
:1006A0005D81452B31F09F3F31F491E08F3F19F48C
:1006B00003C091E001C090E090FF09C049815A81D8
:1006C0006B817C818D819E810E94610B05C0C90177
:1006D0000E948D028111F2CF2B960FB6F894DEBFE7
:1006E0000FBECDBFDF91CF910895FC018081918134
:1006F0000E94BC080895CF93882309F455C0C82FE1
:100700008CEF8C0F813AF8F48C2F0E94731A8111B0
:100710004BC06C2F80910201909103010E94E21D59
:10072000882349F06C2F80910201909103010E946F
:100730001A1E0E94620C6C2F80910201909103019D
:100740000E94181E0CC080E28C0F883058F4C770CD
:1007500081E001C0880FCA95EAF70E94230CCF916F
:100760000C94620CEBE5EC0FE33040F4F0E0E05A5F
:10077000FE4F808190E0CF910C94AA1DE8E5EC0F2C
:10078000E73150F4F0E0EE0FFF1FEE5CFE4F80818A
:100790009181CF910C94C01DCD3E30F08C2F0E94E2
:1007A000D415CF910C94A616CF910895882389F182
:1007B0009CEF980F913A40F4682F8091020190913C
:1007C00003010E941A1E0DC090E2980F983058F451
:1007D000877091E001C0990F8A95EAF7892F0E94EE
:1007E000290C0C94620C9BE5980F933020F480E068
:1007F00090E00C94AA1D98E5980F973120F480E0C2
:1008000090E00C94C01D8D3E20F00E942F160C9499
:10081000A61608951F93CF93DF93182FEB010E9424
:100820007B03209741F08FE99FE00197F1F700C02B
:1008300000002197F6CF812FDF91CF911F910C946B
:10084000D603893319F060E070E002C060E570E023
:100850000C940A04882321F00E94230C0C94620C4F
:100860000895882321F00E94290C0C94620C0895AD
:10087000CF92DF92EF92FF920F931F93CF93DF936C
:100880007C01D62FC72FFC011281058102950F70C4
:100890000E94190C8823B9F01123A9F08C2F807FB6
:1008A000803421F080E28D0F883068F08091B202B0
:1008B00082FD09C082E00E94C20C0E94190C91E0E6
:1008C000D82ED92601C0D12CCC2EC2948FE0C822BC
:1008D0008C2D90E08C30910508F0CFC1FC01EA5AD4
:1008E000FF4F0C943E268C2F807FCF70882311F011
:1008F000C295C07F112399F0CC2309F4AAC180E2EC
:100900008D0F883010F0D11104C08C2F0E94230C61
:1009100003C08C2F0E94330C0E94620C9AC18D2F51
:100920000E94D603CC2309F4A8C180E28D0F883041
:1009300038F1DD2329F18C2F0E94390C24C08C2F33
:10094000807FCF70803211F0C295C07FDD2319F017
:10095000D130A1F13DC08091B20282FF17C01123B6
:1009600049F0CC2329F08C2F0E94230C0E94620CAA
:1009700080E070C180E00E94D603CC2309F47DC1E1
:100980008C2F0E94290C0E94620C77C1112371F0F8
:10099000002341F0013031F40E94430C8C2B0E9463
:1009A0004B0C6BC10E94430C8C2B1DC0002319F013
:1009B000013009F462C10E94580C25C0112321F0B6
:1009C000063008F05AC10EC0053008F056C11BC0F1
:1009D000112361F0002331F0F701858180FF39C1D7
:1009E0008F7085838C2F0E942A0447C1002359F001
:1009F000D93309F03FC1FFEF07EE13E0F15000409B
:100A00001040E1F735C18C2F0E94310436C18C2F84
:100A100086958695837019F0813061F02EC111237F
:100A200021F08D2F9C2F937002C080E090E00E94F7
:100A3000AA1D2BC1112321F08D2F9C2F937002C072
:100A400080E090E00E94C01D20C18D2F112319F07D
:100A50000E94D41502C00E942F160E94A61615C12E
:100A60008C2F837009F047C011110BC12D2F2295D7
:100A700026952770220F220F6D2F6F70862F90E022
:100A8000A0E0B0E0022E04C0880F991FAA1FBB1F70
:100A90000A94D2F7D4FF10C04FE050E060E070E05D
:100AA00004C0440F551F661F771F2A95D2F7409543
:100AB00050956095709503C040E050E0BA01C6952E
:100AC000C695C3708A019B01082B192B2A2B3B2B3F
:100AD000C901B801C23049F058F4C13019F00E9480
:100AE0003907CFC00E942707CCC00E944B07C9C05E
:100AF0000E942507C6C0112319F08C2F817001C0F8
:100B00008695882309F4BDC02D2F22952695277040
:100B1000220F220F6D2F6F70862F90E0A0E0B0E0C3
:100B2000022E04C0880F991FAA1FBB1F0A94D2F778
:100B3000D4FF10C04FE050E060E070E004C0440F0C
:100B4000551F661F771F2A95D2F7409550956095DF
:100B5000709503C040E050E0BA01C695C695C370D9
:100B60008A019B01082B192B2A2B3B2BC901B801A9
:100B7000C23049F058F4C13019F00E94FE0781C01C
:100B80000E94EC077EC00E9410087BC00E945F0795
:100B900078C0CF70112339F08C2F0E9485078D2FDC
:100BA0000E942A046EC08D2F0E9431048C2F0E9457
:100BB000A60767C0D23F21F128F4D03F41F0D13FD2
:100BC000C1F043C0D33F19F1D43F79F03EC01123A7
:100BD00041F0053008F051C08C2F8F710E94CB0777
:100BE0004CC0063008F049C0F7CF8091B20282FFB6
:100BF00018C0112339F08C2F8F710E9485073DC0DA
:100C00001123C9F38C2F8F710E94A60736C01123C0
:100C100029F08C2F8F710E9470072FC00E946B07E4
:100C20002CC0112349F0CF718C2F0E94850763E0FF
:100C30008C2F0E94A70C21C081E00E94C20C0230C0
:100C4000E0F082E00E94C20C18C0112331F00023B2
:100C500091F28D2F0E947B0310C0002399F2D933AB
:100C600049F41FEF27EE33E0115020403040E1F708
:100C700000C000008D2F0E94D60388EF8C0D8430B9
:100C800020F40E947E1D0E941003DD20C9F00E9406
:100C9000150C80FD15C0F70112820E940F0C0E94F6
:100CA0008507C7010E9481060E940F0CDF91CF913A
:100CB0001F910F91FF90EF90DF90CF900C94A607BB
:100CC000DF91CF911F910F91FF90EF90DF90CF9028
:100CD00008950F931F93CF93DF93EC01688179817F
:100CE0008A810E94C7088C010E9422080E94130773
:100CF000B801CE010E943804DF91CF911F910F916E
:100D00000895CF93DF93EC01988189812B813C81F9
:100D1000232B31F08F3F31F481E09F3F19F403C062
:100D200081E001C080E080FD1DC0CE010E94AE02C6
:100D3000811110C00E94190C8823A1F08A81882398
:100D400089F08091B20282FD0DC082E0DF91CF91E7
:100D50000C94C20CCE010E946906CE01DF91CF91A6
:100D60000C948F02DF91CF91089580E090E00E9473
:100D7000AA1D80E090E00E94C01D0E94400C0E94CD
:100D8000620C0E94D7170C94A616809102019091D4
:100D900003010E941C1E0C94B5060E94300C0C949A
:100DA000C50692959F70963079F010F4925001C06C
:100DB0009A50923068F4803F69F018F4883E40F40D
:100DC00009C0843F29F406C0883E20F0813F11F01D
:100DD00080E0089581E00895FC01808191810E9466
:100DE000BC080E94D1060895CF93DF9300D000D0B5
:100DF0001F92CDB7DEB70F900F900F900F900F900E
:100E0000DF91CF910895CF93DF9300D000D000D031
:100E1000CDB7DEB726960FB6F894DEBF0FBECDBFB6
:100E2000DF91CF910895089508950C9414070C94C0
:100E300015070E9417076093E8017093E9018093FA
:100E4000EA019093EB010C94B5060C9419070F93EB
:100E50001F930091E8011091E9012091EA0130917E
:100E6000EB01602B712B822B932B1F910F910C9414
:100E700019070F931F930091E8011091E901209148
:100E8000EA013091EB0160237123822393231F91A8
:100E90000F910C9419070F931F930091E801109183
:100EA000E9012091EA013091EB0160277127822747
:100EB00093271F910F910C9419070C9414070E940B
:100EC0005D076093E4017093E5018093E6019093E0
:100ED000E7010C94B50660E070E0CB010C945F076D
:100EE0000F931F9341E050E060E070E08A019B01A6
:100EF00004C0000F111F221F331F8A95D2F7C901AA
:100F0000B8011F910F910C945F070F931F9341E05D
:100F100050E060E070E004C0440F551F661F771F6B
:100F20008A95D2F78091E4019091E501A091E601C4
:100F3000B091E7018A019B01082B192B2A2B3B2B2F
:100F4000C901B8011F910F910C945F070F931F9374
:100F500041E050E060E070E004C0440F551F661FA0
:100F6000771F8A95D2F7409550956095709580913E
:100F7000E4019091E501A091E601B091E7018A01B9
:100F80009B01082319232A233B23C901B8011F9180
:100F90000F910C945F070F931F9341E050E060E0C6
:100FA00070E004C0440F551F661F771F8A95D2F763
:100FB0008091E4019091E501A091E601B091E701F3
:100FC0008A019B01082719272A273B27C901B80155
:100FD0001F910F910C945F070F931F930091E401F1
:100FE0001091E5012091E6013091E701602B712B12
:100FF000822B932B1F910F910C945F070F931F93DC
:101000000091E4011091E5012091E6013091E701A2
:1010100060237123822393231F910F910C945F0708
:101020000F931F930091E4011091E5012091E601D7
:101030003091E70160277127822793271F910F9135
:101040000C945F07089529E0929F800D1124E82FEA
:10105000E695E695E695877051E001C0550F8A95B3
:10106000EAF785E0E89FF0011124E855FE4F20E003
:1010700030E070E04081CB01022E02C0969587954A
:101080000A94E2F7817081958427852384278193D0
:101090002F5F3F4F2530310569F7089529E0929F72
:1010A000800D1124682F669566956695982F977028
:1010B00085E0689FB001112440E050E080E0FB0132
:1010C000E40FF51FE855FE4F208130E0092E02C0E5
:1010D000369527950A94E2F721703327042E01C034
:1010E000220F0A94EAF7822B4F5F5F4F453051057C
:1010F00031F70895BF92CF92DF92EF92FF920F9354
:101100001F93CF93DF938C01C090E401D090E50151
:10111000E090E601F090E7018091E8019091E9010B
:10112000A091EA01B091EB01C82AD92AEA2AFB2A48
:10113000CFE1D0E0D701C6010C2E04C0B695A7952B
:10114000979587950A94D2F780FD04C0219790F770
:10115000B12C07C0BC2EB8018C2F0E94CB0F019779
:10116000A9F38B2DDF91CF911F910F91FF90EF90FD
:10117000DF90CF90BF900895CF93DF93EC010E9452
:101180007A08BE010E94CB0FDF91CF9108951F9383
:10119000CF93DF93EB019091A701992321F0CB012D
:1011A0000E94BC0813C0882349F0CB010E947A0832
:1011B000182F682FCE010E94230804C0CB010E9483
:1011C0004E08182FBE01812F0E94CB0FDF91CF91C7
:1011D0001F9108951F93CF93DF93C091EC0116E008
:1011E0008091ED01C81799F0D0E01C9FF0011D9F80
:1011F000F00D1124E251FE4F4081518162817381D3
:10120000848195810E9403072196C770E9CFDF9101
:10121000CF911F91089540911E0250911F0260913D
:1012200020027091210280912202909123020C945D
:101230000307EF92FF920F931F93CF93DF93809159
:10124000230282958F7009F065C080912002882367
:1012500009F460C08091EC01F090ED0110911E0244
:1012600000911F02609121027091220291E01F3FC4
:1012700009F090E0C0910001D0910101292F96E082
:10128000E92E8F1509F446C06115710521F00F3F55
:1012900021F030E003C031E001C0322F90E030FD9A
:1012A00036C0E89EF001E99EF00D1124DF01A25145
:1012B000BE4F11963C911197301329C03C913113C8
:1012C00026C012963C911297311121C013964D9170
:1012D0005C911497461B570B4C175D07C0F4809127
:1012E00023028F70806180932302ED50FE4F808136
:1012F0008F70806180838EE192E00E948106DF9191
:10130000CF911F910F91FF90EF900C94EA080196F6
:101310008770B7CFDF91CF911F910F91FF90EF9022
:1013200008959F92AF92BF92CF92DF92EF92FF9279
:101330000F931F93CF93DF93CDB7DEB761970FB6AF
:10134000F894DEBF0FBECDBF8C0185E0F801DE0151
:101350001D9601900D928A95E1F7D8011296EC90B6
:1013600090911E02E0911F022091210230912202F1
:101370002115310531F0EF3F31F481E09F3F19F441
:1013800003C081E001C080E0B82FB1709B2E80FDCA
:1013900047C1D8014C9111965C9111971396AD906D
:1013A000BC9014978EE1C82E82E0D82EF0902002D7
:1013B000B501621B730B2091000130910101FF20E8
:1013C00009F4D9C0809123026217730708F095C011
:1013D000282F207F09F052C05E1313C0491311C09B
:1013E000FE2CE1100EC08F708061809323020E945A
:1013F0000B09C6010E94810680912302F8018583B2
:101400004DC1AB2831F05F3F31F481E04F3F19F41B
:1014100003C081E001C080E080FD03C081E08E2533
:1014200002C080E090E0F82FF170FF2E80FF1CC01A
:101430008091EC012091ED0136E0821709F40BC197
:1014400090E0389FF001399FF00D1124E251FE4FDA
:101450006181561306C06081461303C06281E612A3
:1014600003C001968770E9CFFE2CEE2009F416C167
:101470008091230281608093230254C05E1306C0D2
:10148000491304C0E11002C0F80199C0C8010E94CC
:10149000EC06882361F1EE2051F120912302822F86
:1014A00082958F7090E0029774F080911E02909167
:1014B0001F0298878F831986BB86AA862C87CE0148
:1014C00007960E94810686E0F801AEE1B2E0019045
:1014D0000D928A95E1F70E9419090E940B090AC032
:1014E0005E1711F1C8010E94EC0681112CC0C801E1
:1014F0000E948106FF24F394D1C0282F207F81F71A
:101500007A2DB98AA88A6E2D89890E94F4068EE107
:1015100092E00E94810686E0D6011D928A95E9F745
:101520000E940B09F12CBAC04913DCCFE110DACFCD
:10153000F8018583C8010E94810686E0D6011D92CC
:101540008A95E9F7ABC0EE2091F220912302822F19
:1015500082958F7090E002970CF4B5CF80911E02B7
:1015600090911F029A8389831B82BD82AC822E8355
:10157000CE010196A6CF6217730708F044C0FE2C77
:10158000EE2009F4B4CF5E1330C049132EC0209171
:10159000230220FD21C0822F82958F70482F50E0BA
:1015A00041155105C9F0F80125834F30510541F02F
:1015B0008F5F982F9295907F822F8F70892B8583D4
:1015C000C8010E94810686E0F801AEE1B2E0019018
:1015D0000D928A95E1F73CC086E0F801AEE1B2E0F9
:1015E00001900D928A95E1F759C0C8010E94EC065E
:1015F000811169CF80912302816080932302C80109
:101600000E9481064BC07A2DB98AA88A6E2D8989DD
:101610000E94F40686E0D6011D928A95E9F718C06B
:10162000EE2009F464CFC8010E94EC06F82E88234E
:1016300009F45DCF86E0F801AEE1B2E001900D92D1
:101640008A95E1F78EE192E00E9475030E941909E4
:101650000E940B0923C04D875E878D859E850E9461
:10166000BC08292F22952F70223028F49F7039F062
:10167000811105C00BC0243028F49F7049F4805EAE
:10168000883020F0C8010E9481069F2CF92C06C0EA
:10169000D80115969C91907F91F7F8CF8F2D619688
:1016A0000FB6F894DEBF0FBECDBFDF91CF911F9173
:1016B0000F91FF90EF90DF90CF90BF90AF909F90F1
:1016C00008951F93CF93DF93CDB7DEB72C970FB656
:1016D000F894DEBF0FBECDBF4F83588769877A87E6
:1016E0008B879C87CE0107960E9491098823D1F0B1
:1016F0009F8188852A853B85232B31F08F3F31F4EC
:1017000081E09F3F19F403C081E001C080E080FDCB
:1017100047C04F81588569857A858B859C850E9455
:1017200003073EC086E0FE013796DE011196019068
:101730000D928A95E1F7FF81E8856A857B856115C1
:10174000710531F0EF3F31F481E0FF3F19F403C040
:1017500081E001C080E080FD23C02091ED0130E0F8
:10176000C9010196877099274091EC0150E08417D8
:101770009507F1F1F983EA837D836C8396E0929F6C
:10178000D001939FB00D1124A251BE4FFE0131969E
:1017900001900D929A95E1F78093ED010E94EA087D
:1017A00016E08091EC019091ED01891771F1189F7D
:1017B000C001112482519E4F0E949109882329F172
:1017C000E091EC011E9FF0011124E251FE4F408197
:1017D000518162817381848195810E940307809188
:1017E000EC0190E00196877099278093EC01D9CFA6
:1017F0000E94CD061092ED011092EC01EEE1F2E0B4
:1018000086E0DF011D928A95E9F72C960FB6F894D1
:10181000DEBF0FBECDBFDF91CF911F9108958091A4
:101820002C02859585958595089580912C02877069
:10183000089590912C02977081E009F480E008955A
:1018400080913702089590913702892B8093370257
:1018500008958095909137028923809337020895E7
:1018600010923702089590913602892B80933602A8
:1018700008958095909136028923809336020895C9
:1018800010923602089580912D02089508950C94C7
:10189000460C0C94470C9091B20292FD08C09091B6
:1018A0002D02981721F080932D020C94490C089575
:1018B00080912D02882329F010922D0280E00C9453
:1018C000490C0895CF93DF93E0910201F091030159
:1018D000809137028083E0910201F09103019081B1
:1018E00080913602892B808380912D02882381F09C
:1018F000E0910201F09103019081892B8083809116
:101900000201909103010E94D61D81110E94580C82
:10191000C0910201D091030148E050E064E272E01E
:10192000CE010E945826892B69F088E0FE01A4E2CE
:10193000B2E001900D928A95E1F7CE01DF91CF914F
:101940000C94911DDF91CF9108950C94460C9091C9
:10195000B20292FD10C098E0899F90011124262BBD
:1019600020932C020E94850780912C0285958595F5
:1019700085950C94A50C0C94850710922C0280E0A0
:101980000C94A50C20912C028095822380932C022C
:10199000982F977099F430E0482F082E000C550BC3
:1019A0002417350759F09091B20292FD07C0859532
:1019B000859585950E94A6070C94BD0C089590917D
:1019C000B20292FB222720F9281769F080FB92F9D6
:1019D0009093B2028091B1029091B2020E942D0DBB
:1019E00082E00C94C20C08958091B20282FB882799
:1019F00080F991E089270C94DF0C81E00C94DF0CD6
:101A000080E00C94DF0C6FEF7FEF80E090E00C94AF
:101A10009A2680E090E00E94762621E0893E9E4F43
:101A200009F020E0822F089582E090E00C946E2669
:101A300083E090E00C946E26CF9384E090E00E94C7
:101A40006E26C82F82E290E00E946E262C2F30E096
:101A5000A901582BCA01CF910895CF93C92F682FA0
:101A600084E090E00E947C266C2F82E290E0CF918F
:101A70000C947C26AB01BC018FE090E00C948E2688
:101A8000AB01BC0183E190E00C948E2660E070E035
:101A9000CB010C94400D60E070E0CB010E943A0D48
:101AA0000C94460D69EE7EEF80E090E00E949A264D
:101AB00060E082E090E00E947C2660E083E090E0BD
:101AC0000E947C261092E8011092E9011092EA012E
:101AD0001092EB0160E084E090E00E947C2660E0E0
:101AE00082E290E00E947C2660E085E090E00E9427
:101AF0007C2660E086E090E00E947C266FEF87E025
:101B000090E00E947C2640E050E0BA0188E090E03E
:101B10000E948E2660E08DE090E00E947C2640E0EE
:101B200050E0BA0188E190E00E948E2660E087E1F3
:101B300090E00E947C2640E050E0BA018CE190E009
:101B40000E948E2660E070E080E290E00E949A267B
:101B500040E050E0BA0188E190E00E948E260C94AB
:101B60004B0D0C94520D682F8EE090E00C947C2667
:101B70000E94CB1E609350027093510280935202D8
:101B80009093530260934C0270934D0280934E02E7
:101B900090934F02089585B7806885BF85B78068A8
:101BA00085BF08950C94141308950C94D40D0C94CF
:101BB000D40D0C94D70D0C94D40D0C94DB0D0C9417
:101BC000D40D0E94CB0D88EE90E10E94741D0E94FE
:101BD000DF0D0C94DD0D0E94D50D0C94D40D0E94E8
:101BE00005110C940F030E94B61E0E94A7100E94BC
:101BF0002E130E945F120E94EF0D0E94E5170E94B3
:101C000038130C94D90D5F926F927F928F929F92AE
:101C1000AF92BF92CF92DF92EF92FF920F931F93FA
:101C2000CF93DF93CDB7DEB72A970FB6F894DEBF18
:101C30000FBECDBF0E948312C82E81110E94B80D25
:101C400038E3832E32E0932E00E010E0502E802FF8
:101C50000E9429115C01F401619071904F01682686
:101C6000792661147104B1F40F5F1F4F0A3011051A
:101C700069F78FEF89838A831B820E94BF1E816070
:101C8000782F9D838C8349815A816B818D810E943D
:101C90002B033AC08091540281FD0E943211D12C55
:101CA000EE24E394F12CC3018E219F21892B29F18D
:101CB0000E94D20D8823A9F0DE825F82AE20BF2071
:101CC00081E0AB2809F480E088870E94BF1E816014
:101CD000782F9A8789874E815F8168858A850E94DF
:101CE0002B03000F111FF801E85CFD4F80819181EB
:101CF000E826F926F182E08207C0D394EE0CFF1C9F
:101D0000F9E0DF12D0CFB0CF81E0C11001C080E098
:101D10002A960FB6F894DEBF0FBECDBFDF91CF91EC
:101D20001F910F91FF90EF90DF90CF90BF90AF90F9
:101D30009F908F907F906F905F9008950E94030E08
:101D40000E9414130E94C4160C942003CF93DF93B7
:101D50000E94D00FEC01811521E5920708F045C0E3
:101D6000811530E5930708F094C0883E910528F569
:101D7000803E910508F0F8C0883A910570F4853AE4
:101D8000910508F07CC08130910509F475C008F414
:101D9000E8C0049708F0E8C0E4C08F3B910508F064
:101DA000E0C0C85AD0E0CC0FDD1FCD59DE4F0990FE
:101DB000D881C02DCE019464D8C0811540E294072B
:101DC00058F4811551E0950708F0CEC08D3E91057D
:101DD00008F4C7C09065C9C0C11580E4D80708F4ED
:101DE000C0C0DF70CE01906AC0C0811525E59207A2
:101DF000A8F4811534E5930708F095C0811543E5F3
:101E0000940708F07BC0811552E5950708F061C082
:101E1000D82FCC27CE01816F906AA7C0C11589E564
:101E2000D807A0F4C11528E5D20708F082C0C11573
:101E300036E5D30708F095C08C2F0E9464108F718F
:101E400090E0D82FCC27CE0190628FC0C1154AE513
:101E5000D40708F474C0CE0190568115904208F062
:101E600080C08D2F8F710E946410DD27D0628F712A
:101E7000AE01582BCA0179C081E090E076C0C55A06
:101E8000D0E0CF56DE4F8881C82FD0E0CE019064DD
:101E90006CC074E0969587957A95E1F7282F2370AA
:101EA0003C2F337081E090E002C0880F991F3A9573
:101EB000E2F79C68AC01522B9A019C2F9F7096957B
:101EC000969550E2959FE0011124C9018C2B9D2B22
:101ED0004CC08370992721E030E002C0220F331FED
:101EE0008A95E2F79C2F9695969580E2989FE0015F
:101EF0001124C22BD32BCE019C6837C08370992745
:101F000021E030E002C0220F331F8A95E2F79C2FB8
:101F10009695969540E2949FE0011124C22BD32B15
:101F2000CE019A6822C0D82FCC27CE01846F906A48
:101F30001CC0DC2FCC27CE01806F906A16C08C2F7E
:101F40008F700E94641094E0D695C7959A95E1F73A
:101F5000CF70D0E0DC2FCC27D0699E01282BC9019F
:101F600004C080E090E001C0CE01DF91CF910895E0
:101F70002AE5829FC0011124FC0129E0729FE00D37
:101F8000F11D1124E60FF11DEE0FFF1FE852FF4F68
:101F90008591949108950E94B80F0E94A60E08950D
:101FA0008238910569F1B0F48133910509F46DC06F
:101FB00048F48932910509F463C08A32910509F425
:101FC00069C008958533910509F455C08933910599
:101FD000B9F00895833E910569F138F4803E91058A
:101FE000B1F0823E910509F10895863E9105A9F16F
:101FF000873E9105B9F1843E910509F064C023C084
:102000002091B10220FD4FC021FD4DC00895809167
:10201000B10280FD44C08091B20280FF44C0809133
:10202000B10284FD42C083EE4DC08091B10282FFB7
:1020300038C0F5CF8091B10282FD33C08091B202E9
:1020400080FD31C0ECCF8091B20281FF32C080911F
:10205000B10284FD2AC087EE35C08091B10283FFB2
:1020600026C0F5CF8091B10283FD21C08091B202DC
:1020700081FD1FC0ECCF8091B10285FD1CC01DC049
:102080008091B10285FD19C016C08091B10286FD14
:1020900016C017C08091B10286FD13C010C089E33D
:1020A00011C082EE0FC080EE0DC080E00BC086EE46
:1020B00009C084EE07C089E205C085E303C08AE257
:1020C00001C081E390E008959091B10292FF0DC0AC
:1020D000282F2871283019F4877F846006C0282FA4
:1020E0002471243011F48B7F886093FF0DC0282F5A
:1020F0002871283119F4877E846106C0282F247145
:10210000243111F48B7E88612091B20220FF0DC032
:10211000382F3871383019F4877F816006C0382F26
:102120003171313011F48E7F886021FF0DC0282F6E
:102130002871283119F4877E816106C0282F21710A
:10214000213111F48E7E886194FD877E089510926E
:10215000AD021092AE021092AF021092B00208953A
:10216000CF92DF92EF92FF926B017C010E941413D9
:1021700081110EC00E94CB1EC61AD70AE80AF90ABE
:10218000C092AD02D092AE02E092AF02F092B002E5
:10219000FF90EF90DF90CF9008950F931F930E94D0
:1021A0001413882321F01F910F910C94CB1E0E94D1
:1021B000CB1E0091AD021091AE022091AF02309182
:1021C000B002600F711F821F931F1F910F9108951E
:1021D00080E008950C94030D0E9483122FEF86E790
:1021E00091E0215080409040E1F700C000000E9443
:1021F000831280E00E94291180FF04C00E94EA102F
:102200000C94281F08950C94EC100E94090D811164
:1022100002C00E94B10D0E94140D809354020E94CE
:102220001C0D9093B2028093B1020E9403110E9490
:10223000180D682F70E080E090E00E942507609103
:10224000E4017091E5018091E6019091E7010C9421
:102250005D07E82FF0E0EE0FFF1FE853FD4F808190
:1022600091810895089580EA8A95F1F7089500C054
:1022700008950C94331108950C943B110C943C1167
:102280000C943B110C943B11FF920F931F93CF932F
:10229000DF93CDB7DEB72A970FB6F894DEBF0FBE37
:1022A000CDBF0E9414136091DC02882309F443C05F
:1022B0005AE0F52E8E010F5F1F4FF8018F2D1192FE
:1022C0008A95E9F7862F90E0880F991FB801885307
:1022D0009D4F0E944613882399F08091B30290E0AD
:1022E000880F991F4AE050E0B80188539D4F0E9423
:1022F000582621E020935502892B61F410E018C084
:10230000809155028823D1F3F8011192FA94E9F7EC
:1023100010925502A091B302B0E0AA0FBB1FA853C0
:10232000BD4F8AE0F80101900D928A95E1F711E026
:102330000E949C0211C08091B30270E0660F771F6B
:1023400068537D4F90E0880F991F88539D4F0E94DE
:10235000D0130E94421110E0812F2A960FB6F894F4
:10236000DEBF0FBECDBFDF91CF911F910F91FF90C8
:102370000895F894E82FE295EF70F0E031A1282F4E
:102380002F7081E090E001C0880F2A95EAF7982F1E
:102390009095932391A392A1892B82A37894089579
:1023A0000F931F93CF93DF93CDE9D1E089918F3FB6
:1023B00011F00E94B91181E0C23AD807B9F7C4E917
:1023C000D1E00DE911E089918F3F11F00E94B91120
:1023D0000C171D07C1F7DF91CF911F910F91089541
:1023E000BF92CF92DF92EF92FF920F931F93CF9302
:1023F000DF938C01C62FD0E0CE0183569E4F6C0137
:10240000FC0190819F3F09F450C0B62EF894E92F4B
:10241000E295EF70F0E081A19F7021E030E001C013
:10242000220F9A95EAF7822B81A382A12095282377
:1024300022A378940E943711E4E9F1E04DE951E0DC
:1024400021E030E0E12CF12C61916F3F89F0A62F63
:10245000A295AF70B0E090968C9190E06F7002C042
:10246000959587956A95E2F780FD02C0C90102C083
:1024700080E090E0E82AF92A220F331F4E175F0709
:1024800019F7F60180818F3F11F00E94B91161E0C8
:10249000E114F10409F460E08B2D0E943911CC0F96
:1024A000DD1FC00FD11FF982E882DF91CF911F910C
:1024B0000F91FF90EF90DF90CF90BF9008958091A3
:1024C000040180910401811102C095E001C090E0F7
:1024D0009093DC0285E0891B8093B3020E94D011A7
:1024E00084E1E8ECF2E0DF01982F1D929A95E9F77C
:1024F000E4EBF2E0DF011D928A95E9F785E00E94A6
:10250000D9120C949A02EF92FF920F931F93CF93DC
:10251000DF93CDB7DEB764970FB6F894DEBF0FBE7A
:10252000CDBF8E010F5F1F4F84E1F80111928A9594
:10253000E9F7F12C6F2DC8010E94F011F394F5E03A
:10254000FF12F8CF44E150E0B80184EB92E00E9422
:1025500058267C0121E0892B09F420E0E114F104E4
:1025600041F084E1F801A4EBB2E001900D928A956C
:10257000E1F76091DC0270E0660F771F68537D4FD2
:1025800045E084EB92E00E94DA12EF2819F40E94F1
:10259000441102C081E090E064960FB6F894DEBF6B
:1025A0000FBECDBFDF91CF911F910F91FF90EF90A4
:1025B00008950895FF920F931F93CF93DF93F82E02
:1025C000092F162FD72FC42F222349F081E08093A3
:1025D00058020E94BF1E909357028093560280912A
:1025E00058028823D9F080915602909157020E9498
:1025F000D71E059798F0EF2DF02FA12FBD2F80E06B
:1026000090E04C2F50E08417950734F421913191DC
:102610002D933D930196F7CF10925802DF91CF9101
:102620001F910F91FF90089580915B0281110DC061
:102630000E941D26811102C082E001C081E08093CA
:102640005B02823011F40E94182681E090915B02B7
:10265000913009F080E008950C9414130E942C131B
:10266000809304010E94141381110C947E13089529
:102670000E941413811102C00C948013089581E00C
:1026800090915C029A3008F080E008950F931F93B8
:10269000CF93DF93EC018B0180915C028A3038F498
:1026A000B801CE010E94CE1381111DC00AC08091D5
:1026B000590290915A020E94D71E843F914080F7A0
:1026C00015C080915C028F3F19F08F5F80935C0290
:1026D00080915C028A3060F00E94BF1E90935A0283
:1026E0008093590203C010925C0202C080E001C0D6
:1026F00081E0DF91CF911F910F9108950C940D1CF3
:102700000C94101CDF92EF92FF920F931F93CF93C4
:10271000DF937901C82F880FDD0B41155105A9F012
:10272000FE0193E0EE0FFF1F9A95E1F7EB5FFE4F7E
:1027300081819281835A9D4F208130E04217530757
:1027400008F49A01A9010E946526CE010E94F91C95
:10275000D82E8823D1F001151105B9F083E0CC0FF4
:10276000DD1F8A95E1F7FE01EB5FFE4F438150E0EC
:102770000417150708F4A801CB5FDE4F6C817D813B
:10278000635A7D4FC7010E9465268D2DDF91CF9141
:102790001F910F91FF90EF90DF9008950C94ED142E
:1027A0000C9409150F931F93CF93DF9300D000D0A3
:1027B000CDB7DEB760917E0270917F02809180027A
:1027C000909181020E94E61E643671058105910593
:1027D00028F10E94CD10DC01CB010296A11DB11D94
:1027E00089839A83AB83BC8300E010E020E030E073
:1027F00044E050E0BE016F5F7F4F82E00E94821391
:10280000182F882361F00E94CB1E60937E02709384
:102810007F02809380029093810201C011E0812F9A
:102820000F900F900F900F90DF91CF911F910F910C
:102830000895AF92BF92CF92DF92EF92FF920F93E3
:102840001F93CF93DF937C015B016A010E943F13CA
:10285000811103C001E010E002C00AE010E0C1E015
:10286000D0E0F894B501C701F6010995789481117B
:1028700015C021960C171D0794F0CC9F9001CD9F99
:10288000300D300D112480E090E045E34A95F1F7DA
:102890000000019682179307C1F7E3CF81E0DF9133
:1028A000CF911F910F91FF90EF90DF90CF90BF904D
:1028B000AF900895AF92BF92CF92DF92EF92FF92C6
:1028C0000F931F93CF93DF93CDB7DEB72B970FB640
:1028D000F894DEBF0FBECDBF7B01C090A201D090A7
:1028E000A30101E010E09E01255F3F4F40E050E072
:1028F00060E070E080E00E948213182F882309F4C2
:102900003EC056018FEFA81AB80A60917A02709102
:102910007B0280917C0290917D020E94E61E6436CB
:1029200071058105910518F10AE010E09E012F5F05
:102930003F4F40E050E060E070E081E00E94821391
:10294000182F6AE070E0C5010E94E61791E02B8520
:10295000281390E0192339F10E94CB1E60937A026C
:1029600070937B0280937C0290937D0211C06AE099
:1029700070E0C5010E94E6179B858913D5CF8AE0D8
:10298000F6013196DE01119601900D928A95E1F7DC
:10299000112349F08AE0FE013196A0E7B2E00190F0
:1029A0000D928A95E1F78AE0E0E7F2E0D701019025
:1029B0000D928A95E1F7812F2B960FB6F894DEBF22
:1029C0000FBECDBFDF91CF911F910F91FF90EF9080
:1029D000DF90CF90BF90AF9008950F931F93CF9348
:1029E000DF93EC018B014AE554E10E94191488231E
:1029F00051F042ED53E1B801CE01DF91CF911F912B
:102A00000F910C94191480E0DF91CF911F910F91D9
:102A100008950F931F93CF93DF93F894C091A20171
:102A2000D091A301CE0101962AE0FB01DC010190C7
:102A30000D922A95E1F76AE070E00E94E61788831C
:102A40007894F8946B857C858D859E8500916C02C9
:102A500010916D0220916E0230916F026017710724
:102A60008207930751F060936C0270936D0280931C
:102A70006E0290936F020E94B0107894DF91CF9114
:102A80001F910F9108950E94DE200E94F30D0C9477
:102A9000EA200E94EE200E949E0E0C9408210E94C3
:102AA0005D1E0E94C5200E94E10D0E9443150E94F8
:102AB00049150E94EB0DFBCF8091880280FF06C074
:102AC0006091220170E0660F771F26C081FF04C06D
:102AD0006091220184E005C082FF07C0609122015D
:102AE00088E0689FB001112417C090918702992354
:102AF000D1F060912101961788F72091220188E09A
:102B0000289F90011124929FA001939F500D1124A2
:102B100070E0CA010E942A266038710540F46115F0
:102B2000710519F406C068E070E0862F08958FE7FC
:102B3000089581E008958091880280FF08C0609127
:102B40001E0170E0759567957595679521C081FFA9
:102B500006C060911E0170E07595679519C082FFEF
:102B600004C060911E0170E010C09091860299230C
:102B700099F060911D019617A0F780911E01899F21
:102B8000C001112470E00E942A266038710540F4CB
:102B90006115710519F406C061E070E0862F089593
:102BA0008FE7089581E008958D3E21F40E945C1521
:102BB000819504C08E3E29F40E945C1580938C029E
:102BC00008958F3E21F40E945C15819504C0803FDA
:102BD00029F40E945C1580938B020895893F19F4B3
:102BE0000E949B1505C08A3F31F40E949B15819578
:102BF00080938D0208958B3F21F40E949B1581954F
:102C000004C08C3F29F40E949B1580938E02089586
:102C10009FE0980F983078F421E030E0A90102C0DD
:102C2000440F551F9A95E2F7CA0190918A02892BA9
:102C300080938A0208958D3F21F4809188028160FB
:102C40000BC08E3F21F480918802826005C08F3FC7
:102C500029F48091880284608093880208958D3ED3
:102C600039F490918C0297FF35C010928C0259C0B4
:102C70008E3E29F490918C021916BCF32BC09091D2
:102C80008B028F3E29F497FF25C010928B0249C01A
:102C9000803F19F41916CCF31DC090918D02893F25
:102CA00029F41916BCF410928D023BC08A3F19F426
:102CB00097FF10C0F8CF8B3F39F490918E0297FFA9
:102CC00009C010928E022DC08C3F21F490918E028B
:102CD0001916BCF39FE0980F983080F421E030E0A3
:102CE000A90102C0440F551F9A95E2F7CA018095C9
:102CF00090918A02892380938A0213C08D3F21F428
:102D0000809188028E7F0BC08E3F21F480918802D3
:102D10008D7F05C08F3F29F4809188028B7F80933F
:102D2000880280918B02811106C080918C028111F2
:102D300002C01092870280918D02811106C080919D
:102D40008E02811102C01092860208950E94BF1E59
:102D500020918B02211104C020918C02222321F0AA
:102D6000909385028093840220918D02211104C0EA
:102D700020918E02222321F090938302809382027D
:102D800089E892E00C949C1DEF92FF920F931F93A1
:102D9000CF93DF9300D000D000D0CDB7DEB786E070
:102DA000E9E8F2E0DE01119601900D928A95E1F7D3
:102DB000E0908B02F0908C0200918D0210918E02B7
:102DC00010928B0210928C0210928D0210928E0241
:102DD000E11003C0FF2009F45DC08091840290914E
:102DE00085020E94D71EAC0190918702992339F089
:102DF0002091230130E02417350758F04BC0209173
:102E000024018AE0289F900111242417350718F027
:102E100041C09F3F19F09F5F90938702EE2061F0C1
:102E20000E945C151E1414F09FEF01C091E0989F62
:102E3000902D112490938B02FF2061F00E945C156D
:102E40001F1414F09FEF01C091E0989F902D112462
:102E500090938C0230918B023323E1F020918C020D
:102E60002223C1F045EB3403C0011124992319F04A
:102E700090938B0203C081E080938B0235EB230398
:102E8000C0011124992319F090938C0203C081E0B2
:102E900080938C02011103C0112309F45DC080915D
:102EA0008202909183020E94D71EAC01909186020B
:102EB000992339F020911F0130E02417350758F08D
:102EC0004BC0209120018AE0289F900111242417F3
:102ED000350718F041C09F3F19F09F5F909386021D
:102EE000002361F00E949B15101614F09FEF01C0A3
:102EF00091E0989F902D112490938D02112361F001
:102F00000E949B15111614F09FEF01C091E0989F4D
:102F1000902D112490938E0230918D023323E1F095
:102F200020918E022223C1F045EB3403C00111240D
:102F3000992319F090938D0203C081E080938D0254
:102F400035EB2303C0011124992319F090938E02CD
:102F500003C081E080938E0280918B0281110BC0AF
:102F600080918C02811107C080918D02811103C074
:102F700080918E0281110E94A616EB82FC820D8345
:102F80001E8386E0FE013196A9E8B2E001900D9221
:102F90008A95E1F726960FB6F894DEBF0FBECDBF37
:102FA000DF91CF911F910F91FF90EF900895E9E885
:102FB000F2E086E0DF011D928A95E9F71092870220
:102FC000109286021092880208950895FC01680FFD
:102FD000791F8FEF91E3E617F70771F021918227B0
:102FE00028E030E087FF03C0880F892701C0880FE1
:102FF00021503109B9F7EFCF0895CF93DF93EC015A
:10300000FB018281882309F43CC1C430FDE5DF0760
:1030100060F4CB3F9CE5D90788F49E0122503C45E3
:103020002431310508F02EC109C0C236EDE5DE07B6
:1030300029F0C63AFDE5DF0709F024C10E941C0D06
:103040009093B2028093B102C1318CE5D80709F4A4
:10305000C6C008F042C0C930ECE5DE0709F49BC0E9
:1030600000F5C5308CE5D80709F485C078F4C33085
:10307000ECE5DE0709F478C008F07AC0C230DC4520
:1030800009F0F5C08091B1028160EFC0C7309CE5C6
:10309000D90709F478C008F07AC08091B102806144
:1030A000E4C0CD30FCE5DF0709F487C058F4CB302D
:1030B0009CE5D90709F479C008F07BC08091B10282
:1030C00088606FC0CF30FCE5DF0709F480C008F0EE
:1030D00082C08091B102877FC8C0CE3F9CE5D907EE
:1030E00009F471C000F5C531FCE5DF0709F485C0BE
:1030F00068F4C3319CE5D90709F475C008F095C0A0
:103100000E94CD068091B1028F77AFC0CC3FFCE525
:10311000DF07A9F108F054C0CB3FDC4509F0A7C098
:103120008091B20240C0C230EDE5DE0709F489C0EB
:1031300058F4C1158DE5D80709F45AC008F069C0E4
:103140008091B20282602FC0C236EDE5DE0709F43D
:103150007CC0C63AFDE5DF0709F481C0C330DD4518
:1031600009F085C080E06EC08091B10282607DC0B0
:103170008091B10216C08091B102886076C08091C2
:10318000B20282604FC08091B10280626EC08091B5
:10319000B10280646AC00E94CD068091B10280684D
:1031A00064C0846062C081603DC08091B1028E7F46
:1031B0005CC08091B1028D7F58C08091B10216C071
:1031C0008091B20218C08091B2028D7F2BC0809195
:1031D000B1028F7E4AC08091B1028F7D46C080913E
:1031E000B1028F7B42C08091B102877F8B7F3DC04F
:1031F0008091B2028D7F8E7F15C08091B10282FBDB
:10320000222720F991E0922790FB82F990FB83F925
:103210002CC08091B202982F909591708E7F892B4F
:1032200090FB81F98093B20222C00E94CD0680916A
:10323000B10287FB222720F991E0922790FB87F9C2
:1032400014C081E00E94B30D12C08091B10284FBD2
:10325000222720F991E0922790FB84F906C0809103
:10326000B102982F909590FB80F98093B1028091E4
:10327000B1029091B2020E942D0D0E94CD0680E015
:1032800001C081E0DF91CF910895893289F1F0F496
:10329000843171F1B0F4873009F077C081E0809318
:1032A000240184E1809323018AE0809322018EE14E
:1032B0008093210188E080931E0188E280931D01A4
:1032C00064C092EE980F9A30F0F05FC0803509F438
:1032D00044C028F48F3409F058C08AE03FC08135DB
:1032E00029F0823509F051C081E038C08FEF36C037
:1032F00080919102882379F11092910210929002AC
:1033000010928F0242C08D5180939102833099F0C8
:1033100038F4813069F08230D9F483E291E00DC055
:10332000853099F078F0863099F48DE191E005C010
:1033300084E291E002C082E291E090939002809357
:103340008F0223C081E291E0F8CF8EE191E0F5CFCA
:10335000109291021AC080E0089586EFE0918F02EA
:10336000F0919002309789F02081082E000C990B83
:10337000820F911D8F3F910519F014F08FEF04C05B
:1033800097FF02C0108201C0808381E008950F93EF
:103390001F9341E050E060E070E08A019B0104C0AF
:1033A000000F111F221F331F8A95D2F7C901B801E0
:1033B0000E9425071F910F910C94CD068B3109F4C3
:1033C00068C058F58B3009F486C078F4863009F46B
:1033D00045C020F4853009F44BC07FC0873009F424
:1033E0004AC0883009F477C078C0803109F464C0DD
:1033F00068F48E3009F071C08091540282FB22275C
:1034000020F991E0922790FB82F94CC0863109F4B3
:1034100062C0893109F45FC060C08A32E1F060F4B3
:10342000873209F455C028F48E3108F456C08D5106
:1034300050C08932E9F051C0833450F48A3308F027
:1034400045C0853309F444C0883309F444C045C0FD
:103450008334F1F142C00E94B10D3DC0809154020D
:10346000817F8E7F8093540281E080939202089541
:103470000E949F0230C080915402982F90959170C5
:1034800090FB80F980935402911125C0897F877F3A
:1034900010C08091540281FB222720F991E09227ED
:1034A00090FB81F9809354029923A9F080915402F2
:1034B0008160809354020FC08091540283FB2227C5
:1034C00020F991E0922790FB83F9ECCF895301C05A
:1034D00080E00E94C71981E0089580E0089580E0AF
:1034E00008950C946F1ACF93C82F80919202813067
:1034F00069F038F08230C1F58C2F0E94451981E0C7
:1035000039C00E94200C823289F504C00E94200C30
:10351000823261F48C2F0E94711A811104C08C2FA9
:103520000E94DE191FC081E090E01CC08C2F0E9419
:103530006F1A811116C0C43189F058F4CB3089F06C
:10354000C031B1F482E08093920288E30E94451971
:1035500008C0C93219F0C83321F00AC01092920293
:1035600007C081E0817006C01092920280E002C024
:1035700080E0F8CFCF910895CF93DF9386319C45BB
:1035800041F5EB010E94200C982F8A8120910201C5
:1035900030910301882379F09A7A81E009F480E080
:1035A00080939302911102C069E201C065E3C901F1
:1035B0000E94181E0AC080919302811102C069E224
:1035C00001C065E3C9010E941A1E0E94620C80E0DE
:1035D00001C081E0DF91CF9108950F931F93CF93A6
:1035E000DF93C42FD22FFC0182818823C9F040933E
:1035F00096020E94BF1E909395028093940280E2EF
:103600008C0F883008F057C0C77081E001C0880F68
:10361000CA95EAF7DF91CF911F910F910C942A047C
:1036200080919602481330C0809194029091950247
:103630000E94D71E883C910538F510E21D0FCD176A
:10364000B9F080E28C0F883040F4C77081E001C08F
:10365000880FCA95EAF70E943104183028F581E0F6
:103660009D2F977001C0880F9A95EAF70E942A044F
:10367000802F0E9421041830F0F4D77081E001C03F
:10368000880FDA95EAF70AC080E28C0F883098F448
:10369000C77081E001C0880FCA95EAF7DF91CF912A
:1036A0001F910F910C943104802FDF91CF911F91C6
:1036B0000F910C942104DF91CF911F910F910895E8
:1036C0000F939C01CB01243F4CE5340731F188F482
:1036D000293DFCE53F07D9F02A3D4CE5340779F157
:1036E000283D3C45A9F506E221EE41EE68ED7CE57A
:1036F0002BC0263FFCE53F07E1F0A8F0273F3C4503
:1037000039F507E225EE46EE67EF7CE51DC007E2DE
:1037100025EE45EE69ED7CE517C006E221EE40EEB0
:1037200064EF7CE511C007E225EE44EE65EF7CE531
:103730000BC006E221EE42EE66EF7CE505C008E232
:1037400021E045EE6AED7CE50E94ED1A80E008C0BC
:10375000FC018281882319F01092960201C081E059
:103760000F9108958EE1489B02C08150E1F7489B7C
:10377000FECF0895589880E28A95F1F7589A0895F7
:10378000FC012AE02A95F1F728E090E080E031E0A2
:1037900040E14A95F1F7880F489B02C0816093276A
:1037A00000C0000040E14A95F1F7215089F720E17F
:1037B0002A95F1F729B100C0000030E13A95F1F700
:1037C000217092272081920F90830895EF92FF92AB
:1037D0000F931F93CF93DF931F92CDB7DEB719825C
:1037E0008C017C01E60EF11C0E151F0551F00E94A4
:1037F000B21BCE0101960E94C01BF80181938F017C
:10380000F3CF81E09981911180E00F90DF91CF910A
:103810001F910F91FF90EF900895509A589A089534
:103820005098589AE89AE9E6F0E080818C7F80838E
:103830000895615091E001C0990F6A95EAF720E080
:1038400031E0992361F0492F482319F0589A232732
:1038500001C0589840E24A95F1F79695F2CF22239D
:1038600011F0589A01C0589880E28A95F1F758985B
:103870000895FF920F931F93CF93DF93EC018C0178
:10388000060F111DC017D10741F0F9900E94BA1B15
:1038900068E08F2D0E94191CF5CFDF91CF911F9109
:1038A0000F91FF9008951F920F920FB60F9211245F
:1038B0000F931F932F933F934F935F936F937F9338
:1038C0008F939F93AF93BF93EF93FF93CF93DF9328
:1038D0001F92CDB7DEB719820E94B21BCE010196AE
:1038E0000E94C01B082F069506950695902F969569
:1038F0009570202F2570920F292F237096959695FD
:10390000920F877089135FC0898181115CC0043078
:1039100008F059C080E18A95F1F7589A509A82E0F0
:103920008A95F1F700C0589888E0089F800111241B
:10393000D801AB5FBE4F1696ED91FC91179730976B
:10394000A9F06091A2017091A30114962D913C9170
:103950001597260F371F11968D919C911297680F1E
:10396000791F13964C9113978C910995F801EB5F91
:10397000FE4F6381662351F08091A2019091A301D3
:1039800024813581820F931F0E94391C0E94BA1B2B
:1039900080E18A95F1F758985098589A80E18A9575
:1039A000F1F7F801EB5FFE4F6081662351F08091E3
:1039B000A2019091A30121813281820F931F0E9465
:1039C000E61B0E94B21B0F90DF91CF91FF91EF9108
:1039D000BF91AF919F918F917F916F915F914F9127
:1039E0003F912F911F910F910F900FBE0F901F903D
:1039F00018950F931F93CF93DF93843091050CF0AC
:103A00006DC0EC01F894509A589885E08A95F1F7CA
:103A100000009C2F969595702C2F2570920F892F62
:103A200083709695969523E0CC0FDD1F2A95E1F7DC
:103A3000980F8E01092B0E94BA1B84E08A95F1F73A
:103A400000C068E0802F0E94191C80E18A95F1F780
:103A50005098589A489902C000C0FCCF87E090E087
:103A6000489B08C0019721F4509A589A789436C020
:103A700000C0F6CFFE01EB5FFE4F6381662381F04D
:103A80008091A2019091A30124813581820F931F1F
:103A90000E94E61B811104C0509A589A78941FC066
:103AA0000E94B21B80E28A95F1F75898509A80E103
:103AB0008A95F1F7CB5FDE4F6881662351F08091E4
:103AC000A2019091A30129813A81820F931F0E9444
:103AD000391C0E94BA1B789481E001C080E0DF911C
:103AE000CF911F910F9108959093A5018093A40108
:103AF000089590939D0280939C0208950E94141350
:103B0000811103C0809197020895E0919C02F09189
:103B10009D02309721F00190F081E02D099480E022
:103B20000895E0919C02F0919D02309721F002806F
:103B3000F381E02D09940895E0919C02F0919D029B
:103B4000309739F022E0DC012C930480F581E02DE0
:103B50000994089520919A0230919B022817390701
:103B600071F090939B0280939A02E0919C02F091F5
:103B70009D02309721F00680F781E02D0994089589
:103B800020919802309199022817390771F090938B
:103B9000990280939802E0919C02F0919D023097E7
:103BA00021F00084F185E02D09940895FC013296FE
:103BB00097E080E0915029F021912223D9F38F5F83
:103BC000F9CF0895662349F0FC01329608962191B9
:103BD000621729F0E817F907D1F780E0089581E02E
:103BE00008959C01FC0132969FEF80E041914617B9
:103BF00089F09F3F19F4411101C0982F8F5F8630E3
:103C0000A9F79F3F39F0F901E90FF11D97FDFA95EA
:103C10006283089508959C012A5F3F4FFC01428111
:103C2000461301C01282019682179307B9F70895CF
:103C30000C94F11D0C940B1E029626E0FC011192CF
:103C40002A95E9F7089508950C94231E83E0809344
:103C50009E020C94241E811102C081E001C082E00A
:103C600080939E020C94241E0C942B1E81E0809362
:103C70009E020C94241E0C94361E08950C943D1E36
:103C80000C943E1E0C943D1E0C943D1E0C943D1E47
:103C9000CF930E94441E0E9483120E94421EC0E0E5
:103CA0008C2F0E942911892B29F4CF5FCA30C1F7CC
:103CB00080E001C081E0CF91089508951F920F9296
:103CC0000FB60F9211248F939F93AF93BF93809160
:103CD0009F02811113C08091DD029091DE02A091BC
:103CE000DF02B091E0024196A11DB11D8093DD027B
:103CF0009093DE02A093DF02B093E002BF91AF91F8
:103D00009F918F910F900FBE0F901F9018958091EB
:103D1000E502843031F10E94000310929F0220E4FA
:103D200088E190E00FB6F894A895809360000FBEEC
:103D30002093600083B7817F846083BF83B78160F5
:103D400083BF7894889583B78E7F83BF0FB6F8942E
:103D5000A895809160008861809360001092600057
:103D60000FBE08950E94CD060C94040382E084BD2A
:103D700093E095BD9AEF97BD80936E0008952FB79D
:103D8000F8948091DD029091DE02A091DF02B09163
:103D9000E0022FBF08952FB7F8946091DD02709173
:103DA000DE028091DF029091E0022FBF08959C0116
:103DB0004FB7F8948091DD029091DE02A091DF026E
:103DC000B091E0024FBF821B930B0895CF92DF9218
:103DD000EF92FF922FB7F894C090DD02D090DE02F0
:103DE000E090DF02F090E0022FBFA7019601261BB2
:103DF000370B480B590BCA01B901FF90EF90DF90C8
:103E0000CF90089578941F920F920FB60F921124BD
:103E10008F939F93AF93BF938091DD029091DE02C9
:103E2000A091DF02B091E0020196A11DB11D809327
:103E3000DD029093DE02A093DF02B093E002BF9117
:103E4000AF919F918F910F900FBE0F901F9018957B
:103E500081E08093E00080E28093D8001092C90056
:103E60008FE19EE40197F1F700C0000087E090EB3E
:103E7000DC018093EE029093EF02A093F002B093E6
:103E8000F1029CE088E10FB6F894A8958093600059
:103E90000FBE90936000FFCF8091AB02089508950C
:103EA00022E02093E9002FEF3091E800215035FD0A
:103EB00006C035ED3A95F1F700002111F5CF2091BC
:103EC000E80025FF0BC040E050E066E070E00E9493
:103ED0007A218091E8008E778093E8000895CF934F
:103EE000DF9321E02093E9002FEF3091E80021508B
:103EF00035FD06C035ED3A95F1F700002111F5CFFB
:103F00002091E80025FF14C0EC0140E050E068E09B
:103F100070E00E947A218091E8008E778093E8001B
:103F200088E0FE01A3EAB2E001900D928A95E1F7E4
:103F3000DF91CF9108958093A0027093A2026093C5
:103F4000A1028091E502843001F582E08093E900CE
:103F50008FEF9091E800815095FD06C095ED9A9500
:103F6000F1F700008111F5CF8091E80085FF0DC0C9
:103F700040E050E063E070E080EA92E00E947A2145
:103F80008091E8008E778093E8000895BC0184E07A
:103F90000C949B1FBC0183E00C949B1F8091E40256
:103FA000811109C00E940B230E9468238091E200C6
:103FB00084608093E20008951092E40208950C94C6
:103FC0003B1E6091E10281E0611101C080E00C9430
:103FD000261E9091E50281E0943009F080E0609126
:103FE000E1020C942B1E42E061EC81E00E948422ED
:103FF00042E261EC82E00E9484229091E50281E03D
:10400000943009F080E06091E1020C94341E8091BC
:10401000E702833009F461C030F4813071F08230FE
:1040200009F49AC008958A3009F486C08B3009F4E7
:104030006CC0893009F0A8C020C08091E602813AA6
:1040400009F0A2C08091E800877F8093E80080910A
:10405000EA029091EB02892B21F468E083EA92E076
:1040600003C060E080E090E070E00E94C521809194
:10407000E8008B778093E80008958091E602813212
:1040800009F082C08091EA029091EB02029708F059
:104090007BC08091E800877F8093E8008091E800F2
:1040A00082FD05C08091E5028111F8CF6DC020919D
:1040B000F3008091F20090E0922B029731F480910E
:1040C000F100813011F0863021F48091F10080936D
:1040D000AB028091E8008B7753C08091E602813A71
:1040E00009F052C08091EA029091EB02892B09F00D
:1040F0004BC08091E800877F8093E8008091E800C2
:1041000080FFFCCF8091310136C08091E602813280
:10411000D9F58091EA029091EB02892BA9F5809163
:10412000E800877F8093E8000E94B9228091E8022E
:10413000809331010C94CD068091E602813221F505
:104140008091E800877F8093E8000E94B9228091E7
:10415000E9028093AC0208958091E602813AA1F4CD
:104160008091E800877F8093E8008091E80080FFDD
:10417000FCCF8091AC028093F1008091E8008E77B3
:104180008093E8000C94B922089584B7877F84BF98
:104190000FB6F894A89580916000886180936000C4
:1041A000109260000FBE90E080E80FB6F894809304
:1041B0006100909361000FBE0C94361E0E940B2389
:1041C0000E946823E2EEF0E080818460808378942E
:1041D0000C94FD2585E291E00C94791D8091E50217
:1041E0008530A9F48091E502853079F40E94871E1C
:1041F0008091E3028823B1F30E94481E882391F343
:104200000E9464210E94CD06EDCF0C94B21E089549
:1042100008950C940B21292F332723303105C9F041
:1042200060F42130310581F02230310509F044C0BD
:104230008BE390E020E133E043C021323105E1F02F
:104240002232310549F138C082E190E02BE433E0BD
:1042500037C099278130910549F028F0029761F520
:10426000E4EFF2E005C0ECE0F3E002C0E0E0F3E0F0
:10427000849190E09F0124C06115710541F0613087
:104280007105D1F489E090E02BE333E019C089E0B7
:1042900090E022E233E014C06115710541F0613015
:1042A000710551F48BE790E02DE533E009C080E41F
:1042B00090E028ED33E004C080E090E020E030E0C2
:1042C000FA0131832083089580E189BD82E189BDAF
:1042D00009B400FEFDCF8091D8008F7D8093D80077
:1042E0008091E00082608093E0008091E00081FD99
:1042F000FCCF0895CF92DF92EF92FF920F931F931E
:10430000CF93DF93EC018B017A010E94D8228111B7
:1043100033C0E114F10439F0F70180819181081B69
:10432000190BC80FD91FC12CD12C0115110519F17A
:104330008091E80085FD16C08091E8008E7780931B
:10434000E800E114F10449F0F70180819181C80E81
:10435000D91ED182C08285E00FC00E94D822882356
:1043600021F30AC089918093F10001501109FFEFF8
:10437000CF1ADF0ADACF80E0DF91CF911F910F9142
:10438000FF90EF90DF90CF9008952091EC02309154
:10439000ED022617370748F06115710539F42091B1
:1043A000E8002E772093E80001C0B901FC0120E06D
:1043B0006115710579F18091E5028823F1F185306D
:1043C000F1F18091E80083FD3CC08091E80082FD1E
:1043D0002EC08091E80080FFEBCF2091F300809108
:1043E000F20090E0922B6115710551F08830910533
:1043F00038F421912093F100615071090196F3CFB7
:1044000021E0089709F020E08091E8008E77809302
:10441000E800CECF2111CFCF0AC08091E5028823DA
:1044200061F0853061F08091E80083FD0AC08091E1
:10443000E80082FFF2CF80E0089582E0089583E0F3
:10444000089581E008952091EC023091ED02261745
:10445000370748F06115710539F42091E8002E778F
:104460002093E80001C0B901FC0120E0611571054D
:1044700091F18091E502882309F440C0853009F468
:104480003FC08091E80083FD3DC08091E80082FD3F
:104490002FC08091E80080FFE9CF2091F300809148
:1044A000F20090E0922B6115710559F0883091056A
:1044B00040F424912093F1003196615071090196E6
:1044C000F2CF21E0089709F020E08091E8008E7794
:1044D0008093E800CBCF2111CCCF0AC08091E502B8
:1044E000882361F0853061F08091E80083FD0AC087
:1044F0008091E80082FFF2CF80E0089582E0089585
:1045000083E0089581E00895982F973068F590939F
:10451000E900981739F07091EC002091ED0050916E
:10452000F00003C0242F762F50E021FD02C09F5FD2
:10453000ECCF3091EB003E7F3093EB003091ED00FB
:104540003D7F3093ED003091EB0031603093EB0014
:104550007093EC002093ED005093F0002091EE005A
:1045600027FDE5CF80E008958F708093E90081E01A
:1045700008958091E60287FF11C08091E80082FDD6
:1045800005C08091E5028111F8CF11C08091E8004B
:104590008B770BC08091E502882349F08091E80079
:1045A00080FFF8CF8091E8008E778093E80008952F
:1045B0002091E4003091E50095E64091EC00842FD5
:1045C000817040FF23C08091E80080FD1DC0809174
:1045D000E502882399F0853099F08091EB0085FD04
:1045E00011C04091E4005091E5002417350729F3EC
:1045F000915011F09A01E1CF84E0089582E008958E
:1046000083E0089581E0089580E008954091E800F6
:1046100042FFDDCF08950E9479230E948123E0EEBE
:10462000F0E0808181608083E8EDF0E080818F7729
:10463000808319BCA7EDB0E08C918E7F8C93808134
:104640008F7E80831092E40208950F931F93CF937F
:10465000DF930E9479230E948123C8EDD0E08881F6
:104660008F77888388818068888388818F7D88831D
:1046700019BC1092E5021092E1021092E30210922E
:10468000E20200EE10E0F80180818B7F8083888158
:104690008160888342E060E080E00E948422E1EE55
:1046A000F0E080818E7F8083E2EEF0E080818160A7
:1046B0008083808188608083F80180818E7F808301
:1046C000888180618883DF91CF911F910F91089538
:1046D000E8EDF0E080818F7E8083E7EDF0E080817F
:1046E0008160808384E082BF81E08093E4020C9447
:1046F0002523E8EDF0E080818E7F80831092E20038
:1047000008951092DA001092E10008951F920F921E
:104710000FB60F9211242F933F934F935F936F9394
:104720007F938F939F93AF93BF93EF93FF9380916A
:10473000E10082FF0BC08091E20082FF07C0809100
:10474000E1008B7F8093E1000E94FC258091DA00DC
:1047500080FF1FC08091D80080FF1BC08091DA00CD
:104760008E7F8093DA008091D90080FF0DC080E1B8
:1047700089BD82E189BD09B400FEFDCF81E080934F
:10478000E5020E94CE1F05C019BC1092E5020E94EE
:10479000DC1F8091E10080FF19C08091E20080FF62
:1047A00015C08091E2008E7F8093E2008091E2004C
:1047B00080618093E2008091D80080628093D8006D
:1047C00019BC85E08093E5020E94E11F8091E10021
:1047D00084FF30C08091E20084FF2CC080E189BD5D
:1047E00082E189BD09B400FEFDCF8091D8008F7DA4
:1047F0008093D8008091E1008F7E8093E1008091CA
:10480000E2008F7E8093E2008091E20081608093DD
:10481000E2008091E102882311F084E007C08091DA
:10482000E30087FD02C081E001C083E08093E502E0
:104830000E94E91F8091E10083FF29C08091E2007E
:1048400083FF25C08091E100877F8093E10082E0B3
:104850008093E5021092E1028091E1008E7F8093C7
:10486000E1008091E2008E7F8093E2008091E2007F
:1048700080618093E20042E060E080E00E94842258
:104880008091F00088608093F0000E94DF1FFF910C
:10489000EF91BF91AF919F918F917F916F915F91B8
:1048A0004F913F912F910F900FBE0F901F90189531
:1048B0001F920F920FB60F9211242F933F934F9395
:1048C0005F936F937F938F939F93AF93BF93CF9398
:1048D000DF93EF93FF93C091E900CF708091EC00DC
:1048E000D82FD17080FDD0E81092E9008091F000BF
:1048F000877F8093F00078940E949C241092E900B6
:104900008091F00088608093F000CD2BCF70C09331
:10491000E900FF91EF91DF91CF91BF91AF919F910E
:104920008F917F916F915F914F913F912F910F9058
:104930000FBE0F901F9018951F93CF93DF93CDB7A5
:10494000DEB7AA970FB6F894DEBF0FBECDBFE6EE76
:10495000F2E08091F100819322E0EE3EF207C9F788
:104960000E9407208091E80083FF2EC18091E6021B
:104970009091E702492F50E04A30510508F024C1D8
:10498000FA01EE59FF4F0C943E26803821F0823810
:1049900009F01AC108C08091E2029091E3029923C4
:1049A00089F082600FC08091EA028F70873008F032
:1049B0000BC18093E9008091EB0085FB882780F98B
:1049C0001092E9009091E800977F9093E80080931F
:1049D000F1001092F100D1C0282F2D7F09F0F4C012
:1049E000882319F0823061F0EFC08091E8028130B5
:1049F00009F0EAC0933009F080E08093E3022EC012
:104A00008091E80281112AC08091EA028F702FEF15
:104A1000280F263008F0D8C08093E9002091EB00E1
:104A200020FF1CC0933021F48091EB00806214C001
:104A30009091EB0090619093EB0021E030E0A901B0
:104A400002C0440F551F8A95E2F74093EA00109286
:104A5000EA008091EB0088608093EB001092E900FF
:104A60008091E800877F8093E8000E94B922ACC063
:104A70008111AAC01091E8021F778091E30080782D
:104A8000812B8093E3008091E800877F8093E8008A
:104A90000E94B9228091E80080FFFCCF8091E30062
:104AA00080688093E300111102C082E001C083E0BE
:104AB0008093E50289C08058823008F085C08091DB
:104AC000E8029091E9028C3D53E0950779F583E087
:104AD0008A838AE289834FB7F894DE01139620E037
:104AE0003EE051E2E32FF0E050935700E49120FFC5
:104AF00003C0E295EF703F5FEF708E2F90E0EA30D9
:104B000010F0C79601C0C0968D939D932F5F2431FE
:104B100049F74FBF8091E800877F8093E8006AE201
:104B200070E0CE0101960E94C52116C06091EA0294
:104B30007091EB02AE014F5F5F4F0E940921BC01F3
:104B4000892B09F441C09091E800977F9093E80089
:104B500089819A810E9423228091E8008B7780933B
:104B6000E80032C0803881F58091E800877F80932B
:104B7000E8008091E1028093F1008091E8008E7757
:104B800072CF811121C08091E8029091E9029927AA
:104B90000297D4F48091E800877F8093E8008091A9
:104BA000E8028093E1020E94B9228091E102811122
:104BB00006C08091E30087FD02C081E001C084E06F
:104BC0008093E5020E94F31F8091E80083FF0AC0F2
:104BD0008091E800877F8093E8008091EB008062FD
:104BE0008093EB00AA960FB6F894DEBF0FBECDBF40
:104BF000DF91CF911F9108950895CF938091E502A1
:104C00008823A1F0C091E900CF709091EC00892F2A
:104C1000817090FD80E8C82B1092E9008091E80037
:104C200083FD0E949C24CF70C093E900CF9108952A
:104C30000E940B231092E5020895E8EDF0E08081D8
:104C4000806180838AE18A95F1F700C08091D90064
:104C50008170089597FB072E16F4009407D077FD16
:104C600009D00E94442607FC05D03EF4909581951A
:104C70009F4F0895709561957F4F0895EE0FFF1F28
:104C80000590F491E02D0994AA1BBB1B51E107C0CC
:104C9000AA1FBB1FA617B70710F0A61BB70B881FCC
:104CA000991F5A95A9F780959095BC01CD0108955B
:104CB000FB01DC0104C08D910190801921F4415069
:104CC0005040C8F7881B990B0895FB01DC0102C016
:104CD00001900D9241505040D8F70895F999FECFB8
:104CE00092BD81BDF89A992780B50895A8E1B0E0FA
:104CF00042E050E00C94A226262FF999FECF92BDF7
:104D000081BDF89A019700B4021639F01FBA20BD90
:104D10000FB6F894FA9AF99A0FBE08950396272FC2
:104D20000E947D260E947C26252F0E947D26242F0E
:104D30000C947D260196272F0E947D260C947C26BC
:104D4000DC01CB01FC01F999FECF06C0F2BDE1BD4B
:104D5000F89A319600B40D9241505040B8F708953A
:044D6000F894FFCFF5
:104D6400C8002E0201000000010000000000000045
:104D74000A01000000040B00000000000028085095
:104D8400011E0A14014C1F6F1F501FCA1FC61F4F5C
:104D94001F01E200E900EA00B500B600B700CD004B
:104DA4008301CC008A01920194012102230224028E
:104DB4002502260227022A02B300B4006F00700005
:104DC400818283E200E900EA00B500B600B700CDB5
:104DD400008301CC008A0192019401210223022460
:104DE400022502260227022A02B300B4006F0070D3
:104DF40000818283946697C63435F4F5F6F731332F
:044E040032365D02E3
:00000001FF
